{
  "address": "0xf63De145E2646BddaAfBCe27CF6F57fbcc4cC65d",
  "abi": [
    {
      "inputs": [
        {
          "internalType": "address",
          "name": "_lzEndpoint",
          "type": "address"
        },
        {
          "internalType": "address",
          "name": "_token",
          "type": "address"
        }
      ],
      "stateMutability": "nonpayable",
      "type": "constructor"
    },
    {
      "anonymous": false,
      "inputs": [
        {
          "indexed": false,
          "internalType": "uint16",
          "name": "_srcChainId",
          "type": "uint16"
        },
        {
          "indexed": false,
          "internalType": "bytes",
          "name": "_srcAddress",
          "type": "bytes"
        },
        {
          "indexed": false,
          "internalType": "uint64",
          "name": "_nonce",
          "type": "uint64"
        },
        {
          "indexed": false,
          "internalType": "bytes",
          "name": "_payload",
          "type": "bytes"
        },
        {
          "indexed": false,
          "internalType": "bytes",
          "name": "_reason",
          "type": "bytes"
        }
      ],
      "name": "MessageFailed",
      "type": "event"
    },
    {
      "anonymous": false,
      "inputs": [
        {
          "indexed": true,
          "internalType": "address",
          "name": "previousOwner",
          "type": "address"
        },
        {
          "indexed": true,
          "internalType": "address",
          "name": "newOwner",
          "type": "address"
        }
      ],
      "name": "OwnershipTransferred",
      "type": "event"
    },
    {
      "anonymous": false,
      "inputs": [
        {
          "indexed": true,
          "internalType": "uint16",
          "name": "_srcChainId",
          "type": "uint16"
        },
        {
          "indexed": true,
          "internalType": "address",
          "name": "_to",
          "type": "address"
        },
        {
          "indexed": false,
          "internalType": "uint256",
          "name": "_amount",
          "type": "uint256"
        }
      ],
      "name": "ReceiveFromChain",
      "type": "event"
    },
    {
      "anonymous": false,
      "inputs": [
        {
          "indexed": false,
          "internalType": "uint16",
          "name": "_srcChainId",
          "type": "uint16"
        },
        {
          "indexed": false,
          "internalType": "bytes",
          "name": "_srcAddress",
          "type": "bytes"
        },
        {
          "indexed": false,
          "internalType": "uint64",
          "name": "_nonce",
          "type": "uint64"
        },
        {
          "indexed": false,
          "internalType": "bytes32",
          "name": "_payloadHash",
          "type": "bytes32"
        }
      ],
      "name": "RetryMessageSuccess",
      "type": "event"
    },
    {
      "anonymous": false,
      "inputs": [
        {
          "indexed": true,
          "internalType": "uint16",
          "name": "_dstChainId",
          "type": "uint16"
        },
        {
          "indexed": true,
          "internalType": "address",
          "name": "_from",
          "type": "address"
        },
        {
          "indexed": false,
          "internalType": "bytes",
          "name": "_toAddress",
          "type": "bytes"
        },
        {
          "indexed": false,
          "internalType": "uint256",
          "name": "_amount",
          "type": "uint256"
        }
      ],
      "name": "SendToChain",
      "type": "event"
    },
    {
      "anonymous": false,
      "inputs": [
        {
          "indexed": false,
          "internalType": "uint16",
          "name": "_dstChainId",
          "type": "uint16"
        },
        {
          "indexed": false,
          "internalType": "uint16",
          "name": "_type",
          "type": "uint16"
        },
        {
          "indexed": false,
          "internalType": "uint256",
          "name": "_minDstGas",
          "type": "uint256"
        }
      ],
      "name": "SetMinDstGas",
      "type": "event"
    },
    {
      "anonymous": false,
      "inputs": [
        {
          "indexed": false,
          "internalType": "address",
          "name": "precrime",
          "type": "address"
        }
      ],
      "name": "SetPrecrime",
      "type": "event"
    },
    {
      "anonymous": false,
      "inputs": [
        {
          "indexed": false,
          "internalType": "uint16",
          "name": "_remoteChainId",
          "type": "uint16"
        },
        {
          "indexed": false,
          "internalType": "bytes",
          "name": "_path",
          "type": "bytes"
        }
      ],
      "name": "SetTrustedRemote",
      "type": "event"
    },
    {
      "anonymous": false,
      "inputs": [
        {
          "indexed": false,
          "internalType": "uint16",
          "name": "_remoteChainId",
          "type": "uint16"
        },
        {
          "indexed": false,
          "internalType": "bytes",
          "name": "_remoteAddress",
          "type": "bytes"
        }
      ],
      "name": "SetTrustedRemoteAddress",
      "type": "event"
    },
    {
      "anonymous": false,
      "inputs": [
        {
          "indexed": false,
          "internalType": "bool",
          "name": "_useCustomAdapterParams",
          "type": "bool"
        }
      ],
      "name": "SetUseCustomAdapterParams",
      "type": "event"
    },
    {
      "inputs": [],
      "name": "DEFAULT_PAYLOAD_SIZE_LIMIT",
      "outputs": [
        {
          "internalType": "uint256",
          "name": "",
          "type": "uint256"
        }
      ],
      "stateMutability": "view",
      "type": "function"
    },
    {
      "inputs": [],
      "name": "NO_EXTRA_GAS",
      "outputs": [
        {
          "internalType": "uint256",
          "name": "",
          "type": "uint256"
        }
      ],
      "stateMutability": "view",
      "type": "function"
    },
    {
      "inputs": [],
      "name": "PT_SEND",
      "outputs": [
        {
          "internalType": "uint16",
          "name": "",
          "type": "uint16"
        }
      ],
      "stateMutability": "view",
      "type": "function"
    },
    {
      "inputs": [],
      "name": "circulatingSupply",
      "outputs": [
        {
          "internalType": "uint256",
          "name": "",
          "type": "uint256"
        }
      ],
      "stateMutability": "view",
      "type": "function"
    },
    {
      "inputs": [
        {
          "internalType": "uint16",
          "name": "_dstChainId",
          "type": "uint16"
        },
        {
          "internalType": "bytes",
          "name": "_toAddress",
          "type": "bytes"
        },
        {
          "internalType": "uint256",
          "name": "_amount",
          "type": "uint256"
        },
        {
          "internalType": "bool",
          "name": "_useZro",
          "type": "bool"
        },
        {
          "internalType": "bytes",
          "name": "_adapterParams",
          "type": "bytes"
        }
      ],
      "name": "estimateSendFee",
      "outputs": [
        {
          "internalType": "uint256",
          "name": "nativeFee",
          "type": "uint256"
        },
        {
          "internalType": "uint256",
          "name": "zroFee",
          "type": "uint256"
        }
      ],
      "stateMutability": "view",
      "type": "function"
    },
    {
      "inputs": [
        {
          "internalType": "uint16",
          "name": "",
          "type": "uint16"
        },
        {
          "internalType": "bytes",
          "name": "",
          "type": "bytes"
        },
        {
          "internalType": "uint64",
          "name": "",
          "type": "uint64"
        }
      ],
      "name": "failedMessages",
      "outputs": [
        {
          "internalType": "bytes32",
          "name": "",
          "type": "bytes32"
        }
      ],
      "stateMutability": "view",
      "type": "function"
    },
    {
      "inputs": [
        {
          "internalType": "uint16",
          "name": "_srcChainId",
          "type": "uint16"
        },
        {
          "internalType": "bytes",
          "name": "_srcAddress",
          "type": "bytes"
        }
      ],
      "name": "forceResumeReceive",
      "outputs": [],
      "stateMutability": "nonpayable",
      "type": "function"
    },
    {
      "inputs": [
        {
          "internalType": "uint16",
          "name": "_version",
          "type": "uint16"
        },
        {
          "internalType": "uint16",
          "name": "_chainId",
          "type": "uint16"
        },
        {
          "internalType": "address",
          "name": "",
          "type": "address"
        },
        {
          "internalType": "uint256",
          "name": "_configType",
          "type": "uint256"
        }
      ],
      "name": "getConfig",
      "outputs": [
        {
          "internalType": "bytes",
          "name": "",
          "type": "bytes"
        }
      ],
      "stateMutability": "view",
      "type": "function"
    },
    {
      "inputs": [
        {
          "internalType": "uint16",
          "name": "_remoteChainId",
          "type": "uint16"
        }
      ],
      "name": "getTrustedRemoteAddress",
      "outputs": [
        {
          "internalType": "bytes",
          "name": "",
          "type": "bytes"
        }
      ],
      "stateMutability": "view",
      "type": "function"
    },
    {
      "inputs": [
        {
          "internalType": "uint16",
          "name": "_srcChainId",
          "type": "uint16"
        },
        {
          "internalType": "bytes",
          "name": "_srcAddress",
          "type": "bytes"
        }
      ],
      "name": "isTrustedRemote",
      "outputs": [
        {
          "internalType": "bool",
          "name": "",
          "type": "bool"
        }
      ],
      "stateMutability": "view",
      "type": "function"
    },
    {
      "inputs": [],
      "name": "lzEndpoint",
      "outputs": [
        {
          "internalType": "contract ILayerZeroEndpoint",
          "name": "",
          "type": "address"
        }
      ],
      "stateMutability": "view",
      "type": "function"
    },
    {
      "inputs": [
        {
          "internalType": "uint16",
          "name": "_srcChainId",
          "type": "uint16"
        },
        {
          "internalType": "bytes",
          "name": "_srcAddress",
          "type": "bytes"
        },
        {
          "internalType": "uint64",
          "name": "_nonce",
          "type": "uint64"
        },
        {
          "internalType": "bytes",
          "name": "_payload",
          "type": "bytes"
        }
      ],
      "name": "lzReceive",
      "outputs": [],
      "stateMutability": "nonpayable",
      "type": "function"
    },
    {
      "inputs": [
        {
          "internalType": "uint16",
          "name": "",
          "type": "uint16"
        },
        {
          "internalType": "uint16",
          "name": "",
          "type": "uint16"
        }
      ],
      "name": "minDstGasLookup",
      "outputs": [
        {
          "internalType": "uint256",
          "name": "",
          "type": "uint256"
        }
      ],
      "stateMutability": "view",
      "type": "function"
    },
    {
      "inputs": [
        {
          "internalType": "uint16",
          "name": "_srcChainId",
          "type": "uint16"
        },
        {
          "internalType": "bytes",
          "name": "_srcAddress",
          "type": "bytes"
        },
        {
          "internalType": "uint64",
          "name": "_nonce",
          "type": "uint64"
        },
        {
          "internalType": "bytes",
          "name": "_payload",
          "type": "bytes"
        }
      ],
      "name": "nonblockingLzReceive",
      "outputs": [],
      "stateMutability": "nonpayable",
      "type": "function"
    },
    {
      "inputs": [],
      "name": "owner",
      "outputs": [
        {
          "internalType": "address",
          "name": "",
          "type": "address"
        }
      ],
      "stateMutability": "view",
      "type": "function"
    },
    {
      "inputs": [
        {
          "internalType": "uint16",
          "name": "",
          "type": "uint16"
        }
      ],
      "name": "payloadSizeLimitLookup",
      "outputs": [
        {
          "internalType": "uint256",
          "name": "",
          "type": "uint256"
        }
      ],
      "stateMutability": "view",
      "type": "function"
    },
    {
      "inputs": [],
      "name": "precrime",
      "outputs": [
        {
          "internalType": "address",
          "name": "",
          "type": "address"
        }
      ],
      "stateMutability": "view",
      "type": "function"
    },
    {
      "inputs": [],
      "name": "renounceOwnership",
      "outputs": [],
      "stateMutability": "nonpayable",
      "type": "function"
    },
    {
      "inputs": [
        {
          "internalType": "uint16",
          "name": "_srcChainId",
          "type": "uint16"
        },
        {
          "internalType": "bytes",
          "name": "_srcAddress",
          "type": "bytes"
        },
        {
          "internalType": "uint64",
          "name": "_nonce",
          "type": "uint64"
        },
        {
          "internalType": "bytes",
          "name": "_payload",
          "type": "bytes"
        }
      ],
      "name": "retryMessage",
      "outputs": [],
      "stateMutability": "payable",
      "type": "function"
    },
    {
      "inputs": [
        {
          "internalType": "address",
          "name": "_from",
          "type": "address"
        },
        {
          "internalType": "uint16",
          "name": "_dstChainId",
          "type": "uint16"
        },
        {
          "internalType": "bytes",
          "name": "_toAddress",
          "type": "bytes"
        },
        {
          "internalType": "uint256",
          "name": "_amount",
          "type": "uint256"
        },
        {
          "internalType": "address payable",
          "name": "_refundAddress",
          "type": "address"
        },
        {
          "internalType": "address",
          "name": "_zroPaymentAddress",
          "type": "address"
        },
        {
          "internalType": "bytes",
          "name": "_adapterParams",
          "type": "bytes"
        }
      ],
      "name": "sendFrom",
      "outputs": [],
      "stateMutability": "payable",
      "type": "function"
    },
    {
      "inputs": [
        {
          "internalType": "uint16",
          "name": "_version",
          "type": "uint16"
        },
        {
          "internalType": "uint16",
          "name": "_chainId",
          "type": "uint16"
        },
        {
          "internalType": "uint256",
          "name": "_configType",
          "type": "uint256"
        },
        {
          "internalType": "bytes",
          "name": "_config",
          "type": "bytes"
        }
      ],
      "name": "setConfig",
      "outputs": [],
      "stateMutability": "nonpayable",
      "type": "function"
    },
    {
      "inputs": [
        {
          "internalType": "uint16",
          "name": "_dstChainId",
          "type": "uint16"
        },
        {
          "internalType": "uint16",
          "name": "_packetType",
          "type": "uint16"
        },
        {
          "internalType": "uint256",
          "name": "_minGas",
          "type": "uint256"
        }
      ],
      "name": "setMinDstGas",
      "outputs": [],
      "stateMutability": "nonpayable",
      "type": "function"
    },
    {
      "inputs": [
        {
          "internalType": "uint16",
          "name": "_dstChainId",
          "type": "uint16"
        },
        {
          "internalType": "uint256",
          "name": "_size",
          "type": "uint256"
        }
      ],
      "name": "setPayloadSizeLimit",
      "outputs": [],
      "stateMutability": "nonpayable",
      "type": "function"
    },
    {
      "inputs": [
        {
          "internalType": "address",
          "name": "_precrime",
          "type": "address"
        }
      ],
      "name": "setPrecrime",
      "outputs": [],
      "stateMutability": "nonpayable",
      "type": "function"
    },
    {
      "inputs": [
        {
          "internalType": "uint16",
          "name": "_version",
          "type": "uint16"
        }
      ],
      "name": "setReceiveVersion",
      "outputs": [],
      "stateMutability": "nonpayable",
      "type": "function"
    },
    {
      "inputs": [
        {
          "internalType": "uint16",
          "name": "_version",
          "type": "uint16"
        }
      ],
      "name": "setSendVersion",
      "outputs": [],
      "stateMutability": "nonpayable",
      "type": "function"
    },
    {
      "inputs": [
        {
          "internalType": "uint16",
          "name": "_srcChainId",
          "type": "uint16"
        },
        {
          "internalType": "bytes",
          "name": "_path",
          "type": "bytes"
        }
      ],
      "name": "setTrustedRemote",
      "outputs": [],
      "stateMutability": "nonpayable",
      "type": "function"
    },
    {
      "inputs": [
        {
          "internalType": "uint16",
          "name": "_remoteChainId",
          "type": "uint16"
        },
        {
          "internalType": "bytes",
          "name": "_remoteAddress",
          "type": "bytes"
        }
      ],
      "name": "setTrustedRemoteAddress",
      "outputs": [],
      "stateMutability": "nonpayable",
      "type": "function"
    },
    {
      "inputs": [
        {
          "internalType": "bool",
          "name": "_useCustomAdapterParams",
          "type": "bool"
        }
      ],
      "name": "setUseCustomAdapterParams",
      "outputs": [],
      "stateMutability": "nonpayable",
      "type": "function"
    },
    {
      "inputs": [
        {
          "internalType": "bytes4",
          "name": "interfaceId",
          "type": "bytes4"
        }
      ],
      "name": "supportsInterface",
      "outputs": [
        {
          "internalType": "bool",
          "name": "",
          "type": "bool"
        }
      ],
      "stateMutability": "view",
      "type": "function"
    },
    {
      "inputs": [],
      "name": "token",
      "outputs": [
        {
          "internalType": "address",
          "name": "",
          "type": "address"
        }
      ],
      "stateMutability": "view",
      "type": "function"
    },
    {
      "inputs": [
        {
          "internalType": "address",
          "name": "newOwner",
          "type": "address"
        }
      ],
      "name": "transferOwnership",
      "outputs": [],
      "stateMutability": "nonpayable",
      "type": "function"
    },
    {
      "inputs": [
        {
          "internalType": "uint16",
          "name": "",
          "type": "uint16"
        }
      ],
      "name": "trustedRemoteLookup",
      "outputs": [
        {
          "internalType": "bytes",
          "name": "",
          "type": "bytes"
        }
      ],
      "stateMutability": "view",
      "type": "function"
    },
    {
      "inputs": [],
      "name": "useCustomAdapterParams",
      "outputs": [
        {
          "internalType": "bool",
          "name": "",
          "type": "bool"
        }
      ],
      "stateMutability": "view",
      "type": "function"
    }
  ],
  "transactionHash": "0x70de293578bdb2f0e855200828c5a78c00d7ab73634434c34f70bc1fbe0a9b4f",
  "args": [
    "0x93f54D755A063cE7bB9e6Ac47Eccc8e33411d706",
    "0x6B1E09c5D7DFe440C156b1a71551BdEeb0D08E0E"
  ],
  "numDeployments": 1,
  "solcInputHash": "a2961d47e197455773ac5ca9672a0b31",
  "bytecode": "0x60c06040523480156200001157600080fd5b50604051620030db380380620030db8339810160408190526200003491620000ce565b818080620000423362000061565b6001600160a01b039081166080529290921660a0525062000106915050565b600080546001600160a01b038381166001600160a01b0319831681178455604051919092169283917f8be0079c531659141344cd1fd0a4f28419497f9722a3daafe3b4186f6b6457e09190a35050565b80516001600160a01b0381168114620000c957600080fd5b919050565b60008060408385031215620000e257600080fd5b620000ed83620000b1565b9150620000fd60208401620000b1565b90509250929050565b60805160a051612f4662000195600039600081816106aa01528181610e7d01528181611b9401528181611c4c01528181611cac0152818161213b015281816121f30152612254015260008181610556015281816106d101528181610957015281816109ff01528181610a7901528181610c0301528181611137015281816115b70152611e790152612f466000f3fe6080604052600436106101f85760003560e01c80638da5cb5b1161010d578063cbed8b9c116100a0578063eb8d72b71161006f578063eb8d72b714610621578063ed629c5c14610641578063f2fde38b1461065b578063f5ecbdbc1461067b578063fc0c546a1461069b57600080fd5b8063cbed8b9c146105ae578063d1deba1f146105ce578063df2a5b3b146105e1578063eab45d9c1461060157600080fd5b8063a6c3d165116100dc578063a6c3d16514610524578063b353aaa714610544578063baf3292d14610578578063c44618341461059857600080fd5b80638da5cb5b1461049d5780639358928b146104cf578063950c8a74146104e45780639f38369a1461050457600080fd5b806342d65a8d116101905780635b8c41e61161015f5780635b8c41e6146103b457806366ad5c8a14610403578063715018a6146104235780637533d788146104385780638cfd8f5c1461046557600080fd5b806342d65a8d1461034457806344770515146103645780634c42899a1461037957806351905636146103a157600080fd5b806310ddb137116101cc57806310ddb137146102945780632a205e3d146102b45780633d8b38f6146102e95780633f1f4fa41461030957600080fd5b80621d3567146101fd57806301ffc9a71461021f57806307e0db17146102545780630df3748314610274575b600080fd5b34801561020957600080fd5b5061021d6102183660046124ca565b6106ce565b005b34801561022b57600080fd5b5061023f61023a36600461255f565b6108ff565b60405190151581526020015b60405180910390f35b34801561026057600080fd5b5061021d61026f366004612589565b610936565b34801561028057600080fd5b5061021d61028f3660046125a6565b6109bf565b3480156102a057600080fd5b5061021d6102af366004612589565b6109de565b3480156102c057600080fd5b506102d46102cf3660046125e2565b610a36565b6040805192835260208301919091520161024b565b3480156102f557600080fd5b5061023f610304366004612681565b610b18565b34801561031557600080fd5b50610336610324366004612589565b60036020526000908152604090205481565b60405190815260200161024b565b34801561035057600080fd5b5061021d61035f366004612681565b610be4565b34801561037057600080fd5b50610336600081565b34801561038557600080fd5b5061038e600081565b60405161ffff909116815260200161024b565b61021d6103af3660046126ea565b610c6a565b3480156103c057600080fd5b506103366103cf366004612820565b6005602090815260009384526040808520845180860184018051928152908401958401959095209452929052825290205481565b34801561040f57600080fd5b5061021d61041e3660046124ca565b610cef565b34801561042f57600080fd5b5061021d610dcb565b34801561044457600080fd5b50610458610453366004612589565b610ddf565b60405161024b919061291a565b34801561047157600080fd5b5061033661048036600461292d565b600260209081526000928352604080842090915290825290205481565b3480156104a957600080fd5b506000546001600160a01b03165b6040516001600160a01b03909116815260200161024b565b3480156104db57600080fd5b50610336610e79565b3480156104f057600080fd5b506004546104b7906001600160a01b031681565b34801561051057600080fd5b5061045861051f366004612589565b610f11565b34801561053057600080fd5b5061021d61053f366004612681565b611028565b34801561055057600080fd5b506104b77f000000000000000000000000000000000000000000000000000000000000000081565b34801561058457600080fd5b5061021d610593366004612966565b6110bb565b3480156105a457600080fd5b5061033661271081565b3480156105ba57600080fd5b5061021d6105c9366004612983565b611118565b61021d6105dc3660046124ca565b6111a2565b3480156105ed57600080fd5b5061021d6105fc3660046129f5565b6113b8565b34801561060d57600080fd5b5061021d61061c366004612a36565b61146a565b34801561062d57600080fd5b5061021d61063c366004612681565b6114b3565b34801561064d57600080fd5b5060065461023f9060ff1681565b34801561066757600080fd5b5061021d610676366004612966565b61150d565b34801561068757600080fd5b50610458610696366004612a51565b611586565b3480156106a757600080fd5b507f00000000000000000000000000000000000000000000000000000000000000006104b7565b337f00000000000000000000000000000000000000000000000000000000000000006001600160a01b03161461074b5760405162461bcd60e51b815260206004820152601e60248201527f4c7a4170703a20696e76616c696420656e64706f696e742063616c6c6572000060448201526064015b60405180910390fd5b61ffff86166000908152600160205260408120805461076990612aa2565b80601f016020809104026020016040519081016040528092919081815260200182805461079590612aa2565b80156107e25780601f106107b7576101008083540402835291602001916107e2565b820191906000526020600020905b8154815290600101906020018083116107c557829003601f168201915b505050505090508051868690501480156107fd575060008151115b801561082557508051602082012060405161081b9088908890612add565b6040518091039020145b6108805760405162461bcd60e51b815260206004820152602660248201527f4c7a4170703a20696e76616c696420736f757263652073656e64696e6720636f6044820152651b9d1c9858dd60d21b6064820152608401610742565b6108f68787878080601f01602080910402602001604051908101604052809392919081815260200183838082843760009201919091525050604080516020601f8a018190048102820181019092528881528a93509150889088908190840183828082843760009201919091525061164692505050565b50505050505050565b60006001600160e01b03198216630a72677560e11b148061093057506301ffc9a760e01b6001600160e01b03198316145b92915050565b61093e6116bf565b6040516307e0db1760e01b815261ffff821660048201527f00000000000000000000000000000000000000000000000000000000000000006001600160a01b0316906307e0db17906024015b600060405180830381600087803b1580156109a457600080fd5b505af11580156109b8573d6000803e3d6000fd5b5050505050565b6109c76116bf565b61ffff909116600090815260036020526040902055565b6109e66116bf565b6040516310ddb13760e01b815261ffff821660048201527f00000000000000000000000000000000000000000000000000000000000000006001600160a01b0316906310ddb1379060240161098a565b600080600080898989604051602001610a529493929190612b16565b60408051601f198184030181529082905263040a7bb160e41b825291506001600160a01b037f000000000000000000000000000000000000000000000000000000000000000016906340a7bb1090610ab8908d90309086908c908c908c90600401612b45565b604080518083038186803b158015610acf57600080fd5b505afa158015610ae3573d6000803e3d6000fd5b505050506040513d601f19601f82011682018060405250810190610b079190612b9b565b925092505097509795505050505050565b61ffff831660009081526001602052604081208054829190610b3990612aa2565b80601f0160208091040260200160405190810160405280929190818152602001828054610b6590612aa2565b8015610bb25780601f10610b8757610100808354040283529160200191610bb2565b820191906000526020600020905b815481529060010190602001808311610b9557829003601f168201915b505050505090508383604051610bc9929190612add565b60405180910390208180519060200120149150509392505050565b610bec6116bf565b6040516342d65a8d60e01b81526001600160a01b037f000000000000000000000000000000000000000000000000000000000000000016906342d65a8d90610c3c90869086908690600401612bbf565b600060405180830381600087803b158015610c5657600080fd5b505af11580156108f6573d6000803e3d6000fd5b610ce4898989898080601f01602080910402602001604051908101604052809392919081815260200183838082843760009201919091525050604080516020601f8a018190048102820181019092528881528c93508b92508a918a908a908190840183828082843760009201919091525061171992505050565b505050505050505050565b333014610d4d5760405162461bcd60e51b815260206004820152602660248201527f4e6f6e626c6f636b696e674c7a4170703a2063616c6c6572206d7573742062656044820152650204c7a4170760d41b6064820152608401610742565b610dc38686868080601f01602080910402602001604051908101604052809392919081815260200183838082843760009201919091525050604080516020601f8901819004810282018101909252878152899350915087908790819084018382808284376000920191909152506117c092505050565b505050505050565b610dd36116bf565b610ddd6000611827565b565b60016020526000908152604090208054610df890612aa2565b80601f0160208091040260200160405190810160405280929190818152602001828054610e2490612aa2565b8015610e715780601f10610e4657610100808354040283529160200191610e71565b820191906000526020600020905b815481529060010190602001808311610e5457829003601f168201915b505050505081565b60007f00000000000000000000000000000000000000000000000000000000000000006001600160a01b03166318160ddd6040518163ffffffff1660e01b815260040160206040518083038186803b158015610ed457600080fd5b505afa158015610ee8573d6000803e3d6000fd5b505050506040513d601f19601f82011682018060405250810190610f0c9190612bdd565b905090565b61ffff8116600090815260016020526040812080546060929190610f3490612aa2565b80601f0160208091040260200160405190810160405280929190818152602001828054610f6090612aa2565b8015610fad5780601f10610f8257610100808354040283529160200191610fad565b820191906000526020600020905b815481529060010190602001808311610f9057829003601f168201915b505050505090508051600014156110065760405162461bcd60e51b815260206004820152601d60248201527f4c7a4170703a206e6f20747275737465642070617468207265636f72640000006044820152606401610742565b6110216000601483516110199190612c0c565b839190611877565b9392505050565b6110306116bf565b81813060405160200161104593929190612c23565b60408051601f1981840301815291815261ffff8516600090815260016020908152919020825161107a93919290910190612349565b507f8c0400cfe2d1199b1a725c78960bcc2a344d869b80590d0f2bd005db15a572ce8383836040516110ae93929190612bbf565b60405180910390a1505050565b6110c36116bf565b600480546001600160a01b0319166001600160a01b0383169081179091556040519081527f5db758e995a17ec1ad84bdef7e8c3293a0bd6179bcce400dff5d4c3d87db726b906020015b60405180910390a150565b6111206116bf565b6040516332fb62e760e21b81526001600160a01b037f0000000000000000000000000000000000000000000000000000000000000000169063cbed8b9c906111749088908890889088908890600401612c49565b600060405180830381600087803b15801561118e57600080fd5b505af1158015610ce4573d6000803e3d6000fd5b61ffff861660009081526005602052604080822090516111c59088908890612add565b90815260408051602092819003830190206001600160401b038716600090815292529020549050806112455760405162461bcd60e51b815260206004820152602360248201527f4e6f6e626c6f636b696e674c7a4170703a206e6f2073746f726564206d65737360448201526261676560e81b6064820152608401610742565b808383604051611256929190612add565b6040518091039020146112b55760405162461bcd60e51b815260206004820152602160248201527f4e6f6e626c6f636b696e674c7a4170703a20696e76616c6964207061796c6f616044820152601960fa1b6064820152608401610742565b61ffff871660009081526005602052604080822090516112d89089908990612add565b90815260408051602092819003830181206001600160401b038916600090815290845282902093909355601f88018290048202830182019052868252611370918991899089908190840183828082843760009201919091525050604080516020601f8a018190048102820181019092528881528a9350915088908890819084018382808284376000920191909152506117c092505050565b7fc264d91f3adc5588250e1551f547752ca0cfa8f6b530d243b9f9f4cab10ea8e587878787856040516113a7959493929190612c82565b60405180910390a150505050505050565b6113c06116bf565b600081116114085760405162461bcd60e51b81526020600482015260156024820152744c7a4170703a20696e76616c6964206d696e47617360581b6044820152606401610742565b61ffff83811660008181526002602090815260408083209487168084529482529182902085905581519283528201929092529081018290527f9d5c7c0b934da8fefa9c7760c98383778a12dfbfc0c3b3106518f43fb9508ac0906060016110ae565b6114726116bf565b6006805460ff19168215159081179091556040519081527f1584ad594a70cbe1e6515592e1272a987d922b097ead875069cebe8b40c004a49060200161110d565b6114bb6116bf565b61ffff831660009081526001602052604090206114d99083836123cd565b507ffa41487ad5d6728f0b19276fa1eddc16558578f5109fc39d2dc33c3230470dab8383836040516110ae93929190612bbf565b6115156116bf565b6001600160a01b03811661157a5760405162461bcd60e51b815260206004820152602660248201527f4f776e61626c653a206e6577206f776e657220697320746865207a65726f206160448201526564647265737360d01b6064820152608401610742565b61158381611827565b50565b604051633d7b2f6f60e21b815261ffff808616600483015284166024820152306044820152606481018290526060907f00000000000000000000000000000000000000000000000000000000000000006001600160a01b03169063f5ecbdbc9060840160006040518083038186803b15801561160157600080fd5b505afa158015611615573d6000803e3d6000fd5b505050506040513d6000823e601f3d908101601f1916820160405261163d9190810190612d0a565b95945050505050565b6000806116a95a60966366ad5c8a60e01b8989898960405160240161166e9493929190612d3e565b60408051601f198184030181529190526020810180516001600160e01b03166001600160e01b03199093169290921790915230929190611984565b9150915081610dc357610dc38686868685611a0e565b6000546001600160a01b03163314610ddd5760405162461bcd60e51b815260206004820181905260248201527f4f776e61626c653a2063616c6c6572206973206e6f7420746865206f776e65726044820152606401610742565b611727866000836000611aab565b600061173588888888611b2b565b9050600080878360405160200161174e93929190612d7c565b604051602081830303815290604052905061176d888287878734611d4f565b886001600160a01b03168861ffff167f39a4c66499bcf4b56d79f0dde8ed7a9d4925a0df55825206b2b8531e202be0d089856040516117ad929190612da9565b60405180910390a3505050505050505050565b602081015161ffff81166117df576117da85858585611ef5565b6109b8565b60405162461bcd60e51b815260206004820152601c60248201527f4f4654436f72653a20756e6b6e6f776e207061636b65742074797065000000006044820152606401610742565b600080546001600160a01b038381166001600160a01b0319831681178455604051919092169283917f8be0079c531659141344cd1fd0a4f28419497f9722a3daafe3b4186f6b6457e09190a35050565b60608161188581601f612dcb565b10156118c45760405162461bcd60e51b815260206004820152600e60248201526d736c6963655f6f766572666c6f7760901b6044820152606401610742565b6118ce8284612dcb565b845110156119125760405162461bcd60e51b8152602060048201526011602482015270736c6963655f6f75744f66426f756e647360781b6044820152606401610742565b606082158015611931576040519150600082526020820160405261197b565b6040519150601f8416801560200281840101858101878315602002848b0101015b8183101561196a578051835260209283019201611952565b5050858452601f01601f1916604052505b50949350505050565b6000606060008060008661ffff166001600160401b038111156119a9576119a96127b3565b6040519080825280601f01601f1916602001820160405280156119d3576020820181803683370190505b50905060008087516020890160008d8df191503d9250868311156119f5578692505b828152826000602083013e909890975095505050505050565b8180519060200120600560008761ffff1661ffff16815260200190815260200160002085604051611a3f9190612de3565b9081526040805191829003602090810183206001600160401b0388166000908152915220919091557fe183f33de2837795525b4792ca4cd60535bd77c53b7e7030060bfcf5734d6b0c90611a9c9087908790879087908790612dff565b60405180910390a15050505050565b60065460ff1615611ac757611ac284848484611f7f565b611b25565b815115611b255760405162461bcd60e51b815260206004820152602660248201527f4f4654436f72653a205f61646170746572506172616d73206d7573742062652060448201526532b6b83a3c9760d11b6064820152608401610742565b50505050565b60006001600160a01b0385163314611b905760405162461bcd60e51b815260206004820152602260248201527f50726f78794f46543a206f776e6572206973206e6f742073656e642063616c6c60448201526132b960f11b6064820152608401610742565b60007f00000000000000000000000000000000000000000000000000000000000000006001600160a01b03166318160ddd6040518163ffffffff1660e01b815260040160206040518083038186803b158015611beb57600080fd5b505afa158015611bff573d6000803e3d6000fd5b505050506040513d601f19601f82011682018060405250810190611c239190612bdd565b6040516303fc91f360e51b81526001600160a01b038881166004830152602482018690529192507f000000000000000000000000000000000000000000000000000000000000000090911690637f923e6090604401600060405180830381600087803b158015611c9257600080fd5b505af1158015611ca6573d6000803e3d6000fd5b505050507f00000000000000000000000000000000000000000000000000000000000000006001600160a01b03166318160ddd6040518163ffffffff1660e01b815260040160206040518083038186803b158015611d0357600080fd5b505afa158015611d17573d6000803e3d6000fd5b505050506040513d601f19601f82011682018060405250810190611d3b9190612bdd565b611d459082612c0c565b9695505050505050565b61ffff861660009081526001602052604081208054611d6d90612aa2565b80601f0160208091040260200160405190810160405280929190818152602001828054611d9990612aa2565b8015611de65780601f10611dbb57610100808354040283529160200191611de6565b820191906000526020600020905b815481529060010190602001808311611dc957829003601f168201915b50505050509050805160001415611e585760405162461bcd60e51b815260206004820152603060248201527f4c7a4170703a2064657374696e6174696f6e20636861696e206973206e6f742060448201526f61207472757374656420736f7572636560801b6064820152608401610742565b611e6387875161205e565b60405162c5803160e81b81526001600160a01b037f0000000000000000000000000000000000000000000000000000000000000000169063c5803100908490611eba908b9086908c908c908c908c90600401612e5d565b6000604051808303818588803b158015611ed357600080fd5b505af1158015611ee7573d6000803e3d6000fd5b505050505050505050505050565b60008082806020019051810190611f0c9190612eb7565b909350915060009050611f1f83826120d1565b9050611f2c878284612136565b9150806001600160a01b03168761ffff167fbf551ec93859b170f9b2141bd9298bf3f64322c6f7beb2543a0cb669834118bf84604051611f6e91815260200190565b60405180910390a350505050505050565b6000611f8a836122ed565b61ffff808716600090815260026020908152604080832093891683529290529081205491925090611fbc908490612dcb565b90506000811161200e5760405162461bcd60e51b815260206004820152601a60248201527f4c7a4170703a206d696e4761734c696d6974206e6f74207365740000000000006044820152606401610742565b80821015610dc35760405162461bcd60e51b815260206004820152601b60248201527f4c7a4170703a20676173206c696d697420697320746f6f206c6f7700000000006044820152606401610742565b61ffff82166000908152600360205260409020548061207c57506127105b808211156120cc5760405162461bcd60e51b815260206004820181905260248201527f4c7a4170703a207061796c6f61642073697a6520697320746f6f206c617267656044820152606401610742565b505050565b60006120de826014612dcb565b835110156121265760405162461bcd60e51b8152602060048201526015602482015274746f416464726573735f6f75744f66426f756e647360581b6044820152606401610742565b500160200151600160601b900490565b6000807f00000000000000000000000000000000000000000000000000000000000000006001600160a01b03166318160ddd6040518163ffffffff1660e01b815260040160206040518083038186803b15801561219257600080fd5b505afa1580156121a6573d6000803e3d6000fd5b505050506040513d601f19601f820116820180604052508101906121ca9190612bdd565b604051632bf545c760e11b81526001600160a01b038681166004830152602482018690529192507f0000000000000000000000000000000000000000000000000000000000000000909116906357ea8b8e90604401600060405180830381600087803b15801561223957600080fd5b505af115801561224d573d6000803e3d6000fd5b50505050807f00000000000000000000000000000000000000000000000000000000000000006001600160a01b03166318160ddd6040518163ffffffff1660e01b815260040160206040518083038186803b1580156122ab57600080fd5b505afa1580156122bf573d6000803e3d6000fd5b505050506040513d601f19601f820116820180604052508101906122e39190612bdd565b61163d9190612c0c565b60006022825110156123415760405162461bcd60e51b815260206004820152601c60248201527f4c7a4170703a20696e76616c69642061646170746572506172616d73000000006044820152606401610742565b506022015190565b82805461235590612aa2565b90600052602060002090601f01602090048101928261237757600085556123bd565b82601f1061239057805160ff19168380011785556123bd565b828001600101855582156123bd579182015b828111156123bd5782518255916020019190600101906123a2565b506123c9929150612441565b5090565b8280546123d990612aa2565b90600052602060002090601f0160209004810192826123fb57600085556123bd565b82601f106124145782800160ff198235161785556123bd565b828001600101855582156123bd579182015b828111156123bd578235825591602001919060010190612426565b5b808211156123c95760008155600101612442565b61ffff8116811461158357600080fd5b60008083601f84011261247857600080fd5b5081356001600160401b0381111561248f57600080fd5b6020830191508360208285010111156124a757600080fd5b9250929050565b80356001600160401b03811681146124c557600080fd5b919050565b600080600080600080608087890312156124e357600080fd5b86356124ee81612456565b955060208701356001600160401b038082111561250a57600080fd5b6125168a838b01612466565b909750955085915061252a60408a016124ae565b9450606089013591508082111561254057600080fd5b5061254d89828a01612466565b979a9699509497509295939492505050565b60006020828403121561257157600080fd5b81356001600160e01b03198116811461102157600080fd5b60006020828403121561259b57600080fd5b813561102181612456565b600080604083850312156125b957600080fd5b82356125c481612456565b946020939093013593505050565b803580151581146124c557600080fd5b600080600080600080600060a0888a0312156125fd57600080fd5b873561260881612456565b965060208801356001600160401b038082111561262457600080fd5b6126308b838c01612466565b909850965060408a0135955086915061264b60608b016125d2565b945060808a013591508082111561266157600080fd5b5061266e8a828b01612466565b989b979a50959850939692959293505050565b60008060006040848603121561269657600080fd5b83356126a181612456565b925060208401356001600160401b038111156126bc57600080fd5b6126c886828701612466565b9497909650939450505050565b6001600160a01b038116811461158357600080fd5b600080600080600080600080600060e08a8c03121561270857600080fd5b8935612713816126d5565b985060208a013561272381612456565b975060408a01356001600160401b038082111561273f57600080fd5b61274b8d838e01612466565b909950975060608c0135965060808c01359150612767826126d5565b90945060a08b013590612779826126d5565b90935060c08b0135908082111561278f57600080fd5b5061279c8c828d01612466565b915080935050809150509295985092959850929598565b634e487b7160e01b600052604160045260246000fd5b604051601f8201601f191681016001600160401b03811182821017156127f1576127f16127b3565b604052919050565b60006001600160401b03821115612812576128126127b3565b50601f01601f191660200190565b60008060006060848603121561283557600080fd5b833561284081612456565b925060208401356001600160401b0381111561285b57600080fd5b8401601f8101861361286c57600080fd5b803561287f61287a826127f9565b6127c9565b81815287602083850101111561289457600080fd5b816020840160208301376000602083830101528094505050506128b9604085016124ae565b90509250925092565b60005b838110156128dd5781810151838201526020016128c5565b83811115611b255750506000910152565b600081518084526129068160208601602086016128c2565b601f01601f19169290920160200192915050565b60208152600061102160208301846128ee565b6000806040838503121561294057600080fd5b823561294b81612456565b9150602083013561295b81612456565b809150509250929050565b60006020828403121561297857600080fd5b8135611021816126d5565b60008060008060006080868803121561299b57600080fd5b85356129a681612456565b945060208601356129b681612456565b93506040860135925060608601356001600160401b038111156129d857600080fd5b6129e488828901612466565b969995985093965092949392505050565b600080600060608486031215612a0a57600080fd5b8335612a1581612456565b92506020840135612a2581612456565b929592945050506040919091013590565b600060208284031215612a4857600080fd5b611021826125d2565b60008060008060808587031215612a6757600080fd5b8435612a7281612456565b93506020850135612a8281612456565b92506040850135612a92816126d5565b9396929550929360600135925050565b600181811c90821680612ab657607f821691505b60208210811415612ad757634e487b7160e01b600052602260045260246000fd5b50919050565b8183823760009101908152919050565b81835281816020850137506000828201602090810191909152601f909101601f19169091010190565b61ffff85168152606060208201526000612b34606083018587612aed565b905082604083015295945050505050565b61ffff871681526001600160a01b038616602082015260a060408201819052600090612b73908301876128ee565b85151560608401528281036080840152612b8e818587612aed565b9998505050505050505050565b60008060408385031215612bae57600080fd5b505080516020909101519092909150565b61ffff8416815260406020820152600061163d604083018486612aed565b600060208284031215612bef57600080fd5b5051919050565b634e487b7160e01b600052601160045260246000fd5b600082821015612c1e57612c1e612bf6565b500390565b8284823760609190911b6bffffffffffffffffffffffff19169101908152601401919050565b600061ffff808816835280871660208401525084604083015260806060830152612c77608083018486612aed565b979650505050505050565b61ffff86168152608060208201526000612ca0608083018688612aed565b6001600160401b0394909416604083015250606001529392505050565b600082601f830112612cce57600080fd5b8151612cdc61287a826127f9565b818152846020838601011115612cf157600080fd5b612d028260208301602087016128c2565b949350505050565b600060208284031215612d1c57600080fd5b81516001600160401b03811115612d3257600080fd5b612d0284828501612cbd565b61ffff85168152608060208201526000612d5b60808301866128ee565b6001600160401b03851660408401528281036060840152612c7781856128ee565b61ffff84168152606060208201526000612d9960608301856128ee565b9050826040830152949350505050565b604081526000612dbc60408301856128ee565b90508260208301529392505050565b60008219821115612dde57612dde612bf6565b500190565b60008251612df58184602087016128c2565b9190910192915050565b61ffff8616815260a060208201526000612e1c60a08301876128ee565b6001600160401b03861660408401528281036060840152612e3d81866128ee565b90508281036080840152612e5181856128ee565b98975050505050505050565b61ffff8716815260c060208201526000612e7a60c08301886128ee565b8281036040840152612e8c81886128ee565b6001600160a01b0387811660608601528616608085015283810360a08501529050612b8e81856128ee565b600080600060608486031215612ecc57600080fd5b8351612ed781612456565b60208501519093506001600160401b03811115612ef357600080fd5b612eff86828701612cbd565b92505060408401519050925092509256fea264697066735822122024433eea72263fb52c127cede94c4835ebb55d78fb10ca62c38602cb3ed35d5a64736f6c63430008090033",
  "devdoc": {
    "kind": "dev",
    "methods": {
      "circulatingSupply()": {
        "details": "returns the circulating amount of tokens on current chain"
      },
      "estimateSendFee(uint16,bytes,uint256,bool,bytes)": {
        "details": "estimate send token `_tokenId` to (`_dstChainId`, `_toAddress`) _dstChainId - L0 defined chain id to send tokens too _toAddress - dynamic bytes array which contains the address to whom you are sending tokens to on the dstChain _amount - amount of the tokens to transfer _useZro - indicates to use zro to pay L0 fees _adapterParam - flexible bytes array to indicate messaging adapter services in L0"
      },
      "owner()": {
        "details": "Returns the address of the current owner."
      },
      "renounceOwnership()": {
        "details": "Leaves the contract without owner. It will not be possible to call `onlyOwner` functions anymore. Can only be called by the current owner. NOTE: Renouncing ownership will leave the contract without an owner, thereby removing any functionality that is only available to the owner."
      },
      "sendFrom(address,uint16,bytes,uint256,address,address,bytes)": {
        "details": "send `_amount` amount of token to (`_dstChainId`, `_toAddress`) from `_from` `_from` the owner of token `_dstChainId` the destination chain identifier `_toAddress` can be any size depending on the `dstChainId`. `_amount` the quantity of tokens in wei `_refundAddress` the address LayerZero refunds if too much message fee is sent `_zroPaymentAddress` set to address(0x0) if not paying in ZRO (LayerZero Token) `_adapterParams` is a flexible bytes array to indicate messaging adapter services"
      },
      "token()": {
        "details": "returns the address of the ERC20 token"
      },
      "transferOwnership(address)": {
        "details": "Transfers ownership of the contract to a new account (`newOwner`). Can only be called by the current owner."
      }
    },
    "version": 1
  },
  "userdoc": {
    "kind": "user",
    "methods": {},
    "version": 1
  },
  "storageLayout": {
    "storage": [
      {
        "astId": 1834,
        "contract": "contracts/FareProxyOFT.sol:FareProxyOFT",
        "label": "_owner",
        "offset": 0,
        "slot": "0",
        "type": "t_address"
      },
      {
        "astId": 215,
        "contract": "contracts/FareProxyOFT.sol:FareProxyOFT",
        "label": "trustedRemoteLookup",
        "offset": 0,
        "slot": "1",
        "type": "t_mapping(t_uint16,t_bytes_storage)"
      },
      {
        "astId": 221,
        "contract": "contracts/FareProxyOFT.sol:FareProxyOFT",
        "label": "minDstGasLookup",
        "offset": 0,
        "slot": "2",
        "type": "t_mapping(t_uint16,t_mapping(t_uint16,t_uint256))"
      },
      {
        "astId": 225,
        "contract": "contracts/FareProxyOFT.sol:FareProxyOFT",
        "label": "payloadSizeLimitLookup",
        "offset": 0,
        "slot": "3",
        "type": "t_mapping(t_uint16,t_uint256)"
      },
      {
        "astId": 227,
        "contract": "contracts/FareProxyOFT.sol:FareProxyOFT",
        "label": "precrime",
        "offset": 0,
        "slot": "4",
        "type": "t_address"
      },
      {
        "astId": 764,
        "contract": "contracts/FareProxyOFT.sol:FareProxyOFT",
        "label": "failedMessages",
        "offset": 0,
        "slot": "5",
        "type": "t_mapping(t_uint16,t_mapping(t_bytes_memory_ptr,t_mapping(t_uint64,t_bytes32)))"
      },
      {
        "astId": 1080,
        "contract": "contracts/FareProxyOFT.sol:FareProxyOFT",
        "label": "useCustomAdapterParams",
        "offset": 0,
        "slot": "6",
        "type": "t_bool"
      }
    ],
    "types": {
      "t_address": {
        "encoding": "inplace",
        "label": "address",
        "numberOfBytes": "20"
      },
      "t_bool": {
        "encoding": "inplace",
        "label": "bool",
        "numberOfBytes": "1"
      },
      "t_bytes32": {
        "encoding": "inplace",
        "label": "bytes32",
        "numberOfBytes": "32"
      },
      "t_bytes_memory_ptr": {
        "encoding": "bytes",
        "label": "bytes",
        "numberOfBytes": "32"
      },
      "t_bytes_storage": {
        "encoding": "bytes",
        "label": "bytes",
        "numberOfBytes": "32"
      },
      "t_mapping(t_bytes_memory_ptr,t_mapping(t_uint64,t_bytes32))": {
        "encoding": "mapping",
        "key": "t_bytes_memory_ptr",
        "label": "mapping(bytes => mapping(uint64 => bytes32))",
        "numberOfBytes": "32",
        "value": "t_mapping(t_uint64,t_bytes32)"
      },
      "t_mapping(t_uint16,t_bytes_storage)": {
        "encoding": "mapping",
        "key": "t_uint16",
        "label": "mapping(uint16 => bytes)",
        "numberOfBytes": "32",
        "value": "t_bytes_storage"
      },
      "t_mapping(t_uint16,t_mapping(t_bytes_memory_ptr,t_mapping(t_uint64,t_bytes32)))": {
        "encoding": "mapping",
        "key": "t_uint16",
        "label": "mapping(uint16 => mapping(bytes => mapping(uint64 => bytes32)))",
        "numberOfBytes": "32",
        "value": "t_mapping(t_bytes_memory_ptr,t_mapping(t_uint64,t_bytes32))"
      },
      "t_mapping(t_uint16,t_mapping(t_uint16,t_uint256))": {
        "encoding": "mapping",
        "key": "t_uint16",
        "label": "mapping(uint16 => mapping(uint16 => uint256))",
        "numberOfBytes": "32",
        "value": "t_mapping(t_uint16,t_uint256)"
      },
      "t_mapping(t_uint16,t_uint256)": {
        "encoding": "mapping",
        "key": "t_uint16",
        "label": "mapping(uint16 => uint256)",
        "numberOfBytes": "32",
        "value": "t_uint256"
      },
      "t_mapping(t_uint64,t_bytes32)": {
        "encoding": "mapping",
        "key": "t_uint64",
        "label": "mapping(uint64 => bytes32)",
        "numberOfBytes": "32",
        "value": "t_bytes32"
      },
      "t_uint16": {
        "encoding": "inplace",
        "label": "uint16",
        "numberOfBytes": "2"
      },
      "t_uint256": {
        "encoding": "inplace",
        "label": "uint256",
        "numberOfBytes": "32"
      },
      "t_uint64": {
        "encoding": "inplace",
        "label": "uint64",
        "numberOfBytes": "8"
      }
    }
  }
}