{
  "address": "0x7Ec43e0846baecbC5D32dFECFf81E9f7bd26bC73",
  "abi": [
    {
      "inputs": [
        {
          "internalType": "uint96",
          "name": "_baseFee",
          "type": "uint96"
        },
        {
          "internalType": "uint96",
          "name": "_gasPriceLink",
          "type": "uint96"
        }
      ],
      "stateMutability": "nonpayable",
      "type": "constructor"
    },
    {
      "inputs": [],
      "name": "InsufficientBalance",
      "type": "error"
    },
    {
      "inputs": [],
      "name": "InvalidConsumer",
      "type": "error"
    },
    {
      "inputs": [],
      "name": "InvalidRandomWords",
      "type": "error"
    },
    {
      "inputs": [],
      "name": "InvalidSubscription",
      "type": "error"
    },
    {
      "inputs": [
        {
          "internalType": "address",
          "name": "owner",
          "type": "address"
        }
      ],
      "name": "MustBeSubOwner",
      "type": "error"
    },
    {
      "inputs": [],
      "name": "TooManyConsumers",
      "type": "error"
    },
    {
      "anonymous": false,
      "inputs": [
        {
          "indexed": true,
          "internalType": "uint64",
          "name": "subId",
          "type": "uint64"
        },
        {
          "indexed": false,
          "internalType": "address",
          "name": "consumer",
          "type": "address"
        }
      ],
      "name": "ConsumerAdded",
      "type": "event"
    },
    {
      "anonymous": false,
      "inputs": [
        {
          "indexed": true,
          "internalType": "uint64",
          "name": "subId",
          "type": "uint64"
        },
        {
          "indexed": false,
          "internalType": "address",
          "name": "consumer",
          "type": "address"
        }
      ],
      "name": "ConsumerRemoved",
      "type": "event"
    },
    {
      "anonymous": false,
      "inputs": [
        {
          "indexed": true,
          "internalType": "uint256",
          "name": "requestId",
          "type": "uint256"
        },
        {
          "indexed": false,
          "internalType": "uint256",
          "name": "outputSeed",
          "type": "uint256"
        },
        {
          "indexed": false,
          "internalType": "uint96",
          "name": "payment",
          "type": "uint96"
        },
        {
          "indexed": false,
          "internalType": "bool",
          "name": "success",
          "type": "bool"
        }
      ],
      "name": "RandomWordsFulfilled",
      "type": "event"
    },
    {
      "anonymous": false,
      "inputs": [
        {
          "indexed": true,
          "internalType": "bytes32",
          "name": "keyHash",
          "type": "bytes32"
        },
        {
          "indexed": false,
          "internalType": "uint256",
          "name": "requestId",
          "type": "uint256"
        },
        {
          "indexed": false,
          "internalType": "uint256",
          "name": "preSeed",
          "type": "uint256"
        },
        {
          "indexed": true,
          "internalType": "uint64",
          "name": "subId",
          "type": "uint64"
        },
        {
          "indexed": false,
          "internalType": "uint16",
          "name": "minimumRequestConfirmations",
          "type": "uint16"
        },
        {
          "indexed": false,
          "internalType": "uint32",
          "name": "callbackGasLimit",
          "type": "uint32"
        },
        {
          "indexed": false,
          "internalType": "uint32",
          "name": "numWords",
          "type": "uint32"
        },
        {
          "indexed": true,
          "internalType": "address",
          "name": "sender",
          "type": "address"
        }
      ],
      "name": "RandomWordsRequested",
      "type": "event"
    },
    {
      "anonymous": false,
      "inputs": [
        {
          "indexed": true,
          "internalType": "uint64",
          "name": "subId",
          "type": "uint64"
        },
        {
          "indexed": false,
          "internalType": "address",
          "name": "to",
          "type": "address"
        },
        {
          "indexed": false,
          "internalType": "uint256",
          "name": "amount",
          "type": "uint256"
        }
      ],
      "name": "SubscriptionCanceled",
      "type": "event"
    },
    {
      "anonymous": false,
      "inputs": [
        {
          "indexed": true,
          "internalType": "uint64",
          "name": "subId",
          "type": "uint64"
        },
        {
          "indexed": false,
          "internalType": "address",
          "name": "owner",
          "type": "address"
        }
      ],
      "name": "SubscriptionCreated",
      "type": "event"
    },
    {
      "anonymous": false,
      "inputs": [
        {
          "indexed": true,
          "internalType": "uint64",
          "name": "subId",
          "type": "uint64"
        },
        {
          "indexed": false,
          "internalType": "uint256",
          "name": "oldBalance",
          "type": "uint256"
        },
        {
          "indexed": false,
          "internalType": "uint256",
          "name": "newBalance",
          "type": "uint256"
        }
      ],
      "name": "SubscriptionFunded",
      "type": "event"
    },
    {
      "inputs": [],
      "name": "BASE_FEE",
      "outputs": [
        {
          "internalType": "uint96",
          "name": "",
          "type": "uint96"
        }
      ],
      "stateMutability": "view",
      "type": "function"
    },
    {
      "inputs": [],
      "name": "GAS_PRICE_LINK",
      "outputs": [
        {
          "internalType": "uint96",
          "name": "",
          "type": "uint96"
        }
      ],
      "stateMutability": "view",
      "type": "function"
    },
    {
      "inputs": [],
      "name": "MAX_CONSUMERS",
      "outputs": [
        {
          "internalType": "uint16",
          "name": "",
          "type": "uint16"
        }
      ],
      "stateMutability": "view",
      "type": "function"
    },
    {
      "inputs": [
        {
          "internalType": "uint64",
          "name": "_subId",
          "type": "uint64"
        }
      ],
      "name": "acceptSubscriptionOwnerTransfer",
      "outputs": [],
      "stateMutability": "pure",
      "type": "function"
    },
    {
      "inputs": [
        {
          "internalType": "uint64",
          "name": "_subId",
          "type": "uint64"
        },
        {
          "internalType": "address",
          "name": "_consumer",
          "type": "address"
        }
      ],
      "name": "addConsumer",
      "outputs": [],
      "stateMutability": "nonpayable",
      "type": "function"
    },
    {
      "inputs": [
        {
          "internalType": "uint64",
          "name": "_subId",
          "type": "uint64"
        },
        {
          "internalType": "address",
          "name": "_to",
          "type": "address"
        }
      ],
      "name": "cancelSubscription",
      "outputs": [],
      "stateMutability": "nonpayable",
      "type": "function"
    },
    {
      "inputs": [
        {
          "internalType": "uint64",
          "name": "_subId",
          "type": "uint64"
        },
        {
          "internalType": "address",
          "name": "_consumer",
          "type": "address"
        }
      ],
      "name": "consumerIsAdded",
      "outputs": [
        {
          "internalType": "bool",
          "name": "",
          "type": "bool"
        }
      ],
      "stateMutability": "view",
      "type": "function"
    },
    {
      "inputs": [],
      "name": "createSubscription",
      "outputs": [
        {
          "internalType": "uint64",
          "name": "_subId",
          "type": "uint64"
        }
      ],
      "stateMutability": "nonpayable",
      "type": "function"
    },
    {
      "inputs": [
        {
          "internalType": "uint256",
          "name": "_requestId",
          "type": "uint256"
        },
        {
          "internalType": "address",
          "name": "_consumer",
          "type": "address"
        },
        {
          "internalType": "uint256[]",
          "name": "randomNumbers",
          "type": "uint256[]"
        }
      ],
      "name": "customFulfillRandomWords",
      "outputs": [],
      "stateMutability": "nonpayable",
      "type": "function"
    },
    {
      "inputs": [
        {
          "internalType": "uint256",
          "name": "_requestId",
          "type": "uint256"
        },
        {
          "internalType": "address",
          "name": "_consumer",
          "type": "address"
        }
      ],
      "name": "fulfillRandomWords",
      "outputs": [],
      "stateMutability": "nonpayable",
      "type": "function"
    },
    {
      "inputs": [
        {
          "internalType": "uint256",
          "name": "_requestId",
          "type": "uint256"
        },
        {
          "internalType": "address",
          "name": "_consumer",
          "type": "address"
        },
        {
          "internalType": "uint256[]",
          "name": "_words",
          "type": "uint256[]"
        }
      ],
      "name": "fulfillRandomWordsWithOverride",
      "outputs": [],
      "stateMutability": "nonpayable",
      "type": "function"
    },
    {
      "inputs": [
        {
          "internalType": "uint64",
          "name": "_subId",
          "type": "uint64"
        },
        {
          "internalType": "uint96",
          "name": "_amount",
          "type": "uint96"
        }
      ],
      "name": "fundSubscription",
      "outputs": [],
      "stateMutability": "nonpayable",
      "type": "function"
    },
    {
      "inputs": [],
      "name": "getConfig",
      "outputs": [
        {
          "internalType": "uint16",
          "name": "minimumRequestConfirmations",
          "type": "uint16"
        },
        {
          "internalType": "uint32",
          "name": "maxGasLimit",
          "type": "uint32"
        },
        {
          "internalType": "uint32",
          "name": "stalenessSeconds",
          "type": "uint32"
        },
        {
          "internalType": "uint32",
          "name": "gasAfterPaymentCalculation",
          "type": "uint32"
        }
      ],
      "stateMutability": "view",
      "type": "function"
    },
    {
      "inputs": [],
      "name": "getFallbackWeiPerUnitLink",
      "outputs": [
        {
          "internalType": "int256",
          "name": "",
          "type": "int256"
        }
      ],
      "stateMutability": "view",
      "type": "function"
    },
    {
      "inputs": [],
      "name": "getFeeConfig",
      "outputs": [
        {
          "internalType": "uint32",
          "name": "fulfillmentFlatFeeLinkPPMTier1",
          "type": "uint32"
        },
        {
          "internalType": "uint32",
          "name": "fulfillmentFlatFeeLinkPPMTier2",
          "type": "uint32"
        },
        {
          "internalType": "uint32",
          "name": "fulfillmentFlatFeeLinkPPMTier3",
          "type": "uint32"
        },
        {
          "internalType": "uint32",
          "name": "fulfillmentFlatFeeLinkPPMTier4",
          "type": "uint32"
        },
        {
          "internalType": "uint32",
          "name": "fulfillmentFlatFeeLinkPPMTier5",
          "type": "uint32"
        },
        {
          "internalType": "uint24",
          "name": "reqsForTier2",
          "type": "uint24"
        },
        {
          "internalType": "uint24",
          "name": "reqsForTier3",
          "type": "uint24"
        },
        {
          "internalType": "uint24",
          "name": "reqsForTier4",
          "type": "uint24"
        },
        {
          "internalType": "uint24",
          "name": "reqsForTier5",
          "type": "uint24"
        }
      ],
      "stateMutability": "view",
      "type": "function"
    },
    {
      "inputs": [],
      "name": "getRequestConfig",
      "outputs": [
        {
          "internalType": "uint16",
          "name": "",
          "type": "uint16"
        },
        {
          "internalType": "uint32",
          "name": "",
          "type": "uint32"
        },
        {
          "internalType": "bytes32[]",
          "name": "",
          "type": "bytes32[]"
        }
      ],
      "stateMutability": "pure",
      "type": "function"
    },
    {
      "inputs": [
        {
          "internalType": "uint64",
          "name": "_subId",
          "type": "uint64"
        }
      ],
      "name": "getSubscription",
      "outputs": [
        {
          "internalType": "uint96",
          "name": "balance",
          "type": "uint96"
        },
        {
          "internalType": "uint64",
          "name": "reqCount",
          "type": "uint64"
        },
        {
          "internalType": "address",
          "name": "owner",
          "type": "address"
        },
        {
          "internalType": "address[]",
          "name": "consumers",
          "type": "address[]"
        }
      ],
      "stateMutability": "view",
      "type": "function"
    },
    {
      "inputs": [
        {
          "internalType": "uint64",
          "name": "subId",
          "type": "uint64"
        }
      ],
      "name": "pendingRequestExists",
      "outputs": [
        {
          "internalType": "bool",
          "name": "",
          "type": "bool"
        }
      ],
      "stateMutability": "view",
      "type": "function"
    },
    {
      "inputs": [
        {
          "internalType": "uint64",
          "name": "_subId",
          "type": "uint64"
        },
        {
          "internalType": "address",
          "name": "_consumer",
          "type": "address"
        }
      ],
      "name": "removeConsumer",
      "outputs": [],
      "stateMutability": "nonpayable",
      "type": "function"
    },
    {
      "inputs": [
        {
          "internalType": "bytes32",
          "name": "_keyHash",
          "type": "bytes32"
        },
        {
          "internalType": "uint64",
          "name": "_subId",
          "type": "uint64"
        },
        {
          "internalType": "uint16",
          "name": "_minimumRequestConfirmations",
          "type": "uint16"
        },
        {
          "internalType": "uint32",
          "name": "_callbackGasLimit",
          "type": "uint32"
        },
        {
          "internalType": "uint32",
          "name": "_numWords",
          "type": "uint32"
        }
      ],
      "name": "requestRandomWords",
      "outputs": [
        {
          "internalType": "uint256",
          "name": "",
          "type": "uint256"
        }
      ],
      "stateMutability": "nonpayable",
      "type": "function"
    },
    {
      "inputs": [
        {
          "internalType": "uint64",
          "name": "_subId",
          "type": "uint64"
        },
        {
          "internalType": "address",
          "name": "_newOwner",
          "type": "address"
        }
      ],
      "name": "requestSubscriptionOwnerTransfer",
      "outputs": [],
      "stateMutability": "pure",
      "type": "function"
    }
  ],
  "transactionHash": "0xd95d0f92253b00de473704d027f9d2a14f89d9f4ea92fe5197422ac0537f3c98",
  "args": [
    "1",
    "1"
  ],
  "numDeployments": 1,
  "solcInputHash": "4f01737400d38983f6d5e776863def8a",
  "bytecode": "0x60e0604052606461ffff1660c09061ffff1660f01b8152506001805560646002553480156200002d57600080fd5b5060405162003414380380620034148339818101604052810190620000539190620000c4565b8181816bffffffffffffffffffffffff166080816bffffffffffffffffffffffff1660a01b81525050806bffffffffffffffffffffffff1660a0816bffffffffffffffffffffffff1660a01b815250505050505062000137565b600081519050620000be816200011d565b92915050565b60008060408385031215620000d857600080fd5b6000620000e885828601620000ad565b9250506020620000fb85828601620000ad565b9150509250929050565b60006bffffffffffffffffffffffff82169050919050565b620001288162000105565b81146200013457600080fd5b50565b60805160a01c60a05160a01c60c05160f01c61328162000193600039600081816111f2015261133d01526000818161083801528181610d0b0152611b1d01526000818161087d01528181610a8c0152610d5001526132816000f3fe608060405234801561001057600080fd5b50600436106101365760003560e01c8063808974ff116100b8578063a47c76961161007c578063a47c76961461030b578063afc69b531461033e578063c3f909d41461035a578063d7ae1d301461037b578063e82ad7d414610397578063ed5eb06d146103c757610136565b8063808974ff1461027b57806382359740146102975780639f87fad7146102b3578063a21a23e4146102cf578063a410347f146102ed57610136565b806354ae33a9116100ff57806354ae33a9146101cf5780635d3b1d30146101eb5780635fbbc0d21461021b57806364d51a2a146102415780637341c10c1461025f57610136565b80620122911461013b57806304c357cb1461015b57806308e3898e14610177578063356dac71146101935780633d18651e146101b1575b600080fd5b6101436103f7565b60405161015293929190612a0e565b60405180910390f35b6101756004803603810190610170919061260e565b61047d565b005b610191600480360381019061018c919061257e565b6104b8565b005b61019b610a7b565b6040516101a89190612998565b60405180910390f35b6101b9610a8a565b6040516101c69190612c37565b60405180910390f35b6101e960048036038101906101e49190612512565b610aae565b005b6102056004803603810190610200919061245f565b610f50565b6040516102129190612a91565b60405180910390f35b6102236111b1565b60405161023899989796959493929190612b8f565b60405180910390f35b6102496111f0565b60405161025691906129f3565b60405180910390f35b6102796004803603810190610274919061260e565b611214565b005b610295600480360381019061029091906124d6565b6114a8565b005b6102b160048036038101906102ac91906125e5565b611526565b005b6102cd60048036038101906102c8919061260e565b611561565b005b6102d7611966565b6040516102e49190612c1c565b60405180910390f35b6102f5611b1b565b6040516103029190612c37565b60405180910390f35b610325600480360381019061032091906125e5565b611b3f565b6040516103359493929190612c52565b60405180910390f35b6103586004803603810190610353919061264a565b611d45565b005b610362611f10565b6040516103729493929190612a4c565b60405180910390f35b6103956004803603810190610390919061260e565b611f30565b005b6103b160048036038101906103ac91906125e5565b612153565b6040516103be919061297d565b60405180910390f35b6103e160048036038101906103dc919061260e565b612190565b6040516103ee919061297d565b60405180910390f35b60008060606003621e8480600067ffffffffffffffff811115610443577f4e487b7100000000000000000000000000000000000000000000000000000000600052604160045260246000fd5b6040519080825280602002602001820160405280156104715781602001602082028036833780820191505090505b50925092509250909192565b6040517f08c379a00000000000000000000000000000000000000000000000000000000081526004016104af906129b3565b60405180910390fd5b60005a905060006005600086815260200190815260200160002060000160009054906101000a900467ffffffffffffffff1667ffffffffffffffff161415610535576040517f08c379a000000000000000000000000000000000000000000000000000000000815260040161052c906129d3565b60405180910390fd5b6000600560008681526020019081526020016000206040518060600160405290816000820160009054906101000a900467ffffffffffffffff1667ffffffffffffffff1667ffffffffffffffff1681526020016000820160089054906101000a900463ffffffff1663ffffffff1663ffffffff16815260200160008201600c9054906101000a900463ffffffff1663ffffffff1663ffffffff168152505090506000835114156106f957806040015163ffffffff1667ffffffffffffffff811115610629577f4e487b7100000000000000000000000000000000000000000000000000000000600052604160045260246000fd5b6040519080825280602002602001820160405280156106575781602001602082028036833780820191505090505b50925060005b816040015163ffffffff168110156106f3578581604051602001610682929190612adc565b6040516020818303038152906040528051906020012060001c8482815181106106d4577f4e487b7100000000000000000000000000000000000000000000000000000000600052603260045260246000fd5b60200260200101818152505080806106eb9061306f565b91505061065d565b5061073e565b806040015163ffffffff1683511461073d576040517f3f3df5b600000000000000000000000000000000000000000000000000000000815260040160405180910390fd5b5b600080631fe543e360e01b878660405160240161075c929190612aac565b604051602081830303815290604052907bffffffffffffffffffffffffffffffffffffffffffffffffffffffff19166020820180517bffffffffffffffffffffffffffffffffffffffffffffffffffffffff8381831617835250505050905060008673ffffffffffffffffffffffffffffffffffffffff16846020015163ffffffff16836040516107ed9190612922565b60006040518083038160008787f1925050503d806000811461082b576040519150601f19603f3d011682016040523d82523d6000602084013e610830565b606091505b5050905060007f00000000000000000000000000000000000000000000000000000000000000006bffffffffffffffffffffffff165a876108719190612edc565b61087b9190612e82565b7f00000000000000000000000000000000000000000000000000000000000000006bffffffffffffffffffffffff166108b49190612dea565b9050806bffffffffffffffffffffffff1660036000876000015167ffffffffffffffff1667ffffffffffffffff16815260200190815260200160002060000160149054906101000a90046bffffffffffffffffffffffff166bffffffffffffffffffffffff161015610952576040517ff4d678b800000000000000000000000000000000000000000000000000000000815260040160405180910390fd5b8060036000876000015167ffffffffffffffff1667ffffffffffffffff16815260200190815260200160002060000160148282829054906101000a90046bffffffffffffffffffffffff166109a79190612f10565b92506101000a8154816bffffffffffffffffffffffff02191690836bffffffffffffffffffffffff160217905550600560008a8152602001908152602001600020600080820160006101000a81549067ffffffffffffffff02191690556000820160086101000a81549063ffffffff021916905560008201600c6101000a81549063ffffffff02191690555050887f7dffc5ae5ee4e2e4df1651cf6ad329a73cebdb728f37ea0187b9b17e036756e48a8385604051610a6893929190612b58565b60405180910390a2505050505050505050565b6000660e35fa931a0000905090565b7f000000000000000000000000000000000000000000000000000000000000000081565b60005a905060006005600087815260200190815260200160002060000160009054906101000a900467ffffffffffffffff1667ffffffffffffffff161415610b2b576040517f08c379a0000000000000000000000000000000000000000000000000000000008152600401610b22906129d3565b60405180910390fd5b6000600560008781526020019081526020016000206040518060600160405290816000820160009054906101000a900467ffffffffffffffff1667ffffffffffffffff1667ffffffffffffffff1681526020016000820160089054906101000a900463ffffffff1663ffffffff1663ffffffff16815260200160008201600c9054906101000a900463ffffffff1663ffffffff1663ffffffff168152505090506000848480806020026020016040519081016040528093929190818152602001838360200280828437600081840152601f19601f820116905080830192505050505050509050600080631fe543e360e01b8984604051602401610c2f929190612aac565b604051602081830303815290604052907bffffffffffffffffffffffffffffffffffffffffffffffffffffffff19166020820180517bffffffffffffffffffffffffffffffffffffffffffffffffffffffff8381831617835250505050905060008873ffffffffffffffffffffffffffffffffffffffff16856020015163ffffffff1683604051610cc09190612922565b60006040518083038160008787f1925050503d8060008114610cfe576040519150601f19603f3d011682016040523d82523d6000602084013e610d03565b606091505b5050905060007f00000000000000000000000000000000000000000000000000000000000000006bffffffffffffffffffffffff165a88610d449190612edc565b610d4e9190612e82565b7f00000000000000000000000000000000000000000000000000000000000000006bffffffffffffffffffffffff16610d879190612dea565b9050806bffffffffffffffffffffffff1660036000886000015167ffffffffffffffff1667ffffffffffffffff16815260200190815260200160002060000160149054906101000a90046bffffffffffffffffffffffff166bffffffffffffffffffffffff161015610e25576040517ff4d678b800000000000000000000000000000000000000000000000000000000815260040160405180910390fd5b8060036000886000015167ffffffffffffffff1667ffffffffffffffff16815260200190815260200160002060000160148282829054906101000a90046bffffffffffffffffffffffff16610e7a9190612f10565b92506101000a8154816bffffffffffffffffffffffff02191690836bffffffffffffffffffffffff160217905550600560008c8152602001908152602001600020600080820160006101000a81549067ffffffffffffffff02191690556000820160086101000a81549063ffffffff021916905560008201600c6101000a81549063ffffffff021916905550508a7f7dffc5ae5ee4e2e4df1651cf6ad329a73cebdb728f37ea0187b9b17e036756e48c8385604051610f3b93929190612b58565b60405180910390a25050505050505050505050565b60008433610f5e8282612190565b610f94576040517f71e8313700000000000000000000000000000000000000000000000000000000815260040160405180910390fd5b600073ffffffffffffffffffffffffffffffffffffffff16600360008967ffffffffffffffff1667ffffffffffffffff16815260200190815260200160002060000160009054906101000a900473ffffffffffffffffffffffffffffffffffffffff1673ffffffffffffffffffffffffffffffffffffffff161415611045576040517f1f6a65b600000000000000000000000000000000000000000000000000000000815260040160405180910390fd5b60006001600081548092919061105a9061306f565b9190505590506000600260008154809291906110759061306f565b91905055905060405180606001604052808a67ffffffffffffffff1681526020018863ffffffff1681526020018763ffffffff168152506005600084815260200190815260200160002060008201518160000160006101000a81548167ffffffffffffffff021916908367ffffffffffffffff16021790555060208201518160000160086101000a81548163ffffffff021916908363ffffffff160217905550604082015181600001600c6101000a81548163ffffffff021916908363ffffffff1602179055509050503373ffffffffffffffffffffffffffffffffffffffff168967ffffffffffffffff168b7f63373d1c4696214b898952999c9aaec57dac1ee2723cec59bea6888f489a977285858d8d8d604051611199959493929190612b05565b60405180910390a48194505050505095945050505050565b6000806000806000806000806000620186a080620186a080620186a0600080600080985098509850985098509850985098509850909192939495969798565b7f000000000000000000000000000000000000000000000000000000000000000081565b816000600360008367ffffffffffffffff1667ffffffffffffffff16815260200190815260200160002060000160009054906101000a900473ffffffffffffffffffffffffffffffffffffffff169050600073ffffffffffffffffffffffffffffffffffffffff168173ffffffffffffffffffffffffffffffffffffffff1614156112cb576040517f1f6a65b600000000000000000000000000000000000000000000000000000000815260040160405180910390fd5b8073ffffffffffffffffffffffffffffffffffffffff163373ffffffffffffffffffffffffffffffffffffffff161461133b57806040517fd8a3fb520000000000000000000000000000000000000000000000000000000081526004016113329190612939565b60405180910390fd5b7f000000000000000000000000000000000000000000000000000000000000000061ffff16600460008667ffffffffffffffff1667ffffffffffffffff1681526020019081526020016000208054905014156113c3576040517f05a48e0f00000000000000000000000000000000000000000000000000000000815260040160405180910390fd5b6113cd8484612190565b156113d7576114a2565b600460008567ffffffffffffffff1667ffffffffffffffff168152602001908152602001600020839080600181540180825580915050600190039060005260206000200160009091909190916101000a81548173ffffffffffffffffffffffffffffffffffffffff021916908373ffffffffffffffffffffffffffffffffffffffff1602179055508367ffffffffffffffff167f752ead9f4536ec1319ee3a5a604e1d65eded22e0924251552ba14ae4faa1bbc3846040516114999190612939565b60405180910390a25b50505050565b6115228282600067ffffffffffffffff8111156114ee577f4e487b7100000000000000000000000000000000000000000000000000000000600052604160045260246000fd5b60405190808252806020026020018201604052801561151c5781602001602082028036833780820191505090505b506104b8565b5050565b6040517f08c379a0000000000000000000000000000000000000000000000000000000008152600401611558906129b3565b60405180910390fd5b816000600360008367ffffffffffffffff1667ffffffffffffffff16815260200190815260200160002060000160009054906101000a900473ffffffffffffffffffffffffffffffffffffffff169050600073ffffffffffffffffffffffffffffffffffffffff168173ffffffffffffffffffffffffffffffffffffffff161415611618576040517f1f6a65b600000000000000000000000000000000000000000000000000000000815260040160405180910390fd5b8073ffffffffffffffffffffffffffffffffffffffff163373ffffffffffffffffffffffffffffffffffffffff161461168857806040517fd8a3fb5200000000000000000000000000000000000000000000000000000000815260040161167f9190612939565b60405180910390fd5b83836116948282612190565b6116ca576040517f71e8313700000000000000000000000000000000000000000000000000000000815260040160405180910390fd5b6000600460008867ffffffffffffffff1667ffffffffffffffff168152602001908152602001600020905060005b818054905081101561191a578673ffffffffffffffffffffffffffffffffffffffff16828281548110611754577f4e487b7100000000000000000000000000000000000000000000000000000000600052603260045260246000fd5b9060005260206000200160009054906101000a900473ffffffffffffffffffffffffffffffffffffffff1673ffffffffffffffffffffffffffffffffffffffff16141561190757600082600184805490506117af9190612edc565b815481106117e6577f4e487b7100000000000000000000000000000000000000000000000000000000600052603260045260246000fd5b9060005260206000200160009054906101000a900473ffffffffffffffffffffffffffffffffffffffff1690508083838154811061184d577f4e487b7100000000000000000000000000000000000000000000000000000000600052603260045260246000fd5b9060005260206000200160006101000a81548173ffffffffffffffffffffffffffffffffffffffff021916908373ffffffffffffffffffffffffffffffffffffffff160217905550828054806118cc577f4e487b7100000000000000000000000000000000000000000000000000000000600052603160045260246000fd5b6001900381819060005260206000200160006101000a81549073ffffffffffffffffffffffffffffffffffffffff021916905590555061191a565b80806119129061306f565b9150506116f8565b508667ffffffffffffffff167ff9bc9d5b5733d904409def43a5ecc888dbdac9a95687780d8fd489d3bb3813fc876040516119559190612939565b60405180910390a250505050505050565b600080600081819054906101000a900467ffffffffffffffff168092919061198d906130b8565b91906101000a81548167ffffffffffffffff021916908367ffffffffffffffff1602179055505060405180604001604052803373ffffffffffffffffffffffffffffffffffffffff16815260200160006bffffffffffffffffffffffff16815250600360008060009054906101000a900467ffffffffffffffff1667ffffffffffffffff1667ffffffffffffffff16815260200190815260200160002060008201518160000160006101000a81548173ffffffffffffffffffffffffffffffffffffffff021916908373ffffffffffffffffffffffffffffffffffffffff16021790555060208201518160000160146101000a8154816bffffffffffffffffffffffff02191690836bffffffffffffffffffffffff16021790555090505060008054906101000a900467ffffffffffffffff1667ffffffffffffffff167f464722b4166576d3dcbba877b999bc35cf911f4eaf434b7eba68fa113951d0bf33604051611af99190612939565b60405180910390a260008054906101000a900467ffffffffffffffff16905090565b7f000000000000000000000000000000000000000000000000000000000000000081565b60008060006060600073ffffffffffffffffffffffffffffffffffffffff16600360008767ffffffffffffffff1667ffffffffffffffff16815260200190815260200160002060000160009054906101000a900473ffffffffffffffffffffffffffffffffffffffff1673ffffffffffffffffffffffffffffffffffffffff161415611bf7576040517f1f6a65b600000000000000000000000000000000000000000000000000000000815260040160405180910390fd5b600360008667ffffffffffffffff1667ffffffffffffffff16815260200190815260200160002060000160149054906101000a90046bffffffffffffffffffffffff166000600360008867ffffffffffffffff1667ffffffffffffffff16815260200190815260200160002060000160009054906101000a900473ffffffffffffffffffffffffffffffffffffffff16600460008967ffffffffffffffff1667ffffffffffffffff16815260200190815260200160002080805480602002602001604051908101604052809291908181526020018280548015611d2f57602002820191906000526020600020905b8160009054906101000a900473ffffffffffffffffffffffffffffffffffffffff1673ffffffffffffffffffffffffffffffffffffffff1681526020019060010190808311611ce5575b5050505050905093509350935093509193509193565b600073ffffffffffffffffffffffffffffffffffffffff16600360008467ffffffffffffffff1667ffffffffffffffff16815260200190815260200160002060000160009054906101000a900473ffffffffffffffffffffffffffffffffffffffff1673ffffffffffffffffffffffffffffffffffffffff161415611df6576040517f1f6a65b600000000000000000000000000000000000000000000000000000000815260040160405180910390fd5b6000600360008467ffffffffffffffff1667ffffffffffffffff16815260200190815260200160002060000160149054906101000a90046bffffffffffffffffffffffff16905081600360008567ffffffffffffffff1667ffffffffffffffff16815260200190815260200160002060000160148282829054906101000a90046bffffffffffffffffffffffff16611e8e9190612e40565b92506101000a8154816bffffffffffffffffffffffff02191690836bffffffffffffffffffffffff1602179055508267ffffffffffffffff167fd39ec07f4e209f627a4c427971473820dc129761ba28de8906bd56f57101d4f8828484611ef59190612e40565b604051611f03929190612c9e565b60405180910390a2505050565b6000806000806004622625a0610a8c618205935093509350935090919293565b816000600360008367ffffffffffffffff1667ffffffffffffffff16815260200190815260200160002060000160009054906101000a900473ffffffffffffffffffffffffffffffffffffffff169050600073ffffffffffffffffffffffffffffffffffffffff168173ffffffffffffffffffffffffffffffffffffffff161415611fe7576040517f1f6a65b600000000000000000000000000000000000000000000000000000000815260040160405180910390fd5b8073ffffffffffffffffffffffffffffffffffffffff163373ffffffffffffffffffffffffffffffffffffffff161461205757806040517fd8a3fb5200000000000000000000000000000000000000000000000000000000815260040161204e9190612939565b60405180910390fd5b8367ffffffffffffffff167fe8ed5b475a5b5987aa9165e8731bb78043f39eee32ec5a1169a89e27fcd4981584600360008867ffffffffffffffff1667ffffffffffffffff16815260200190815260200160002060000160149054906101000a90046bffffffffffffffffffffffff166040516120d5929190612954565b60405180910390a2600360008567ffffffffffffffff1667ffffffffffffffff168152602001908152602001600020600080820160006101000a81549073ffffffffffffffffffffffffffffffffffffffff02191690556000820160146101000a8154906bffffffffffffffffffffffff0219169055505050505050565b60006040517f08c379a0000000000000000000000000000000000000000000000000000000008152600401612187906129b3565b60405180910390fd5b600080600460008567ffffffffffffffff1667ffffffffffffffff16815260200190815260200160002080548060200260200160405190810160405280929190818152602001828054801561223a57602002820191906000526020600020905b8160009054906101000a900473ffffffffffffffffffffffffffffffffffffffff1673ffffffffffffffffffffffffffffffffffffffff16815260200190600101908083116121f0575b5050505050905060005b81518110156122df578373ffffffffffffffffffffffffffffffffffffffff1682828151811061229d577f4e487b7100000000000000000000000000000000000000000000000000000000600052603260045260246000fd5b602002602001015173ffffffffffffffffffffffffffffffffffffffff1614156122cc576001925050506122e6565b80806122d79061306f565b915050612244565b5060009150505b92915050565b60006122ff6122fa84612cec565b612cc7565b9050808382526020820190508285602086028201111561231e57600080fd5b60005b8581101561234e5781612334888261240b565b845260208401935060208301925050600181019050612321565b5050509392505050565b600081359050612367816131aa565b92915050565b60008083601f84011261237f57600080fd5b8235905067ffffffffffffffff81111561239857600080fd5b6020830191508360208202830111156123b057600080fd5b9250929050565b600082601f8301126123c857600080fd5b81356123d88482602086016122ec565b91505092915050565b6000813590506123f0816131c1565b92915050565b600081359050612405816131d8565b92915050565b60008135905061241a816131ef565b92915050565b60008135905061242f81613206565b92915050565b6000813590506124448161321d565b92915050565b60008135905061245981613234565b92915050565b600080600080600060a0868803121561247757600080fd5b6000612485888289016123e1565b955050602061249688828901612435565b94505060406124a7888289016123f6565b93505060606124b888828901612420565b92505060806124c988828901612420565b9150509295509295909350565b600080604083850312156124e957600080fd5b60006124f78582860161240b565b925050602061250885828601612358565b9150509250929050565b6000806000806060858703121561252857600080fd5b60006125368782880161240b565b945050602061254787828801612358565b935050604085013567ffffffffffffffff81111561256457600080fd5b6125708782880161236d565b925092505092959194509250565b60008060006060848603121561259357600080fd5b60006125a18682870161240b565b93505060206125b286828701612358565b925050604084013567ffffffffffffffff8111156125cf57600080fd5b6125db868287016123b7565b9150509250925092565b6000602082840312156125f757600080fd5b600061260584828501612435565b91505092915050565b6000806040838503121561262157600080fd5b600061262f85828601612435565b925050602061264085828601612358565b9150509250929050565b6000806040838503121561265d57600080fd5b600061266b85828601612435565b925050602061267c8582860161244a565b9150509250929050565b600061269283836126ce565b60208301905092915050565b60006126aa8383612815565b60208301905092915050565b60006126c283836128c8565b60208301905092915050565b6126d781612f44565b82525050565b6126e681612f44565b82525050565b60006126f782612d48565b6127018185612d9b565b935061270c83612d18565b8060005b8381101561273d5781516127248882612686565b975061272f83612d74565b925050600181019050612710565b5085935050505092915050565b600061275582612d53565b61275f8185612dac565b935061276a83612d28565b8060005b8381101561279b578151612782888261269e565b975061278d83612d81565b92505060018101905061276e565b5085935050505092915050565b60006127b382612d5e565b6127bd8185612dbd565b93506127c883612d38565b8060005b838110156127f95781516127e088826126b6565b97506127eb83612d8e565b9250506001810190506127cc565b5085935050505092915050565b61280f81612f56565b82525050565b61281e81612f62565b82525050565b600061282f82612d69565b6128398185612dce565b935061284981856020860161300b565b80840191505092915050565b61285e81612f6c565b82525050565b6000612871600f83612dd9565b915061287c82613158565b602082019050919050565b6000612894601383612dd9565b915061289f82613181565b602082019050919050565b6128b381612f76565b82525050565b6128c281612fa4565b82525050565b6128d181612fb3565b82525050565b6128e081612fb3565b82525050565b6128ef81612fbd565b82525050565b6128fe81612fcd565b82525050565b61290d81612ff9565b82525050565b61291c81612fe1565b82525050565b600061292e8284612824565b915081905092915050565b600060208201905061294e60008301846126dd565b92915050565b600060408201905061296960008301856126dd565b6129766020830184612904565b9392505050565b60006020820190506129926000830184612806565b92915050565b60006020820190506129ad6000830184612855565b92915050565b600060208201905081810360008301526129cc81612864565b9050919050565b600060208201905081810360008301526129ec81612887565b9050919050565b6000602082019050612a0860008301846128aa565b92915050565b6000606082019050612a2360008301866128aa565b612a3060208301856128e6565b8181036040830152612a42818461274a565b9050949350505050565b6000608082019050612a6160008301876128aa565b612a6e60208301866128e6565b612a7b60408301856128e6565b612a8860608301846128e6565b95945050505050565b6000602082019050612aa660008301846128d7565b92915050565b6000604082019050612ac160008301856128d7565b8181036020830152612ad381846127a8565b90509392505050565b6000604082019050612af160008301856128d7565b612afe60208301846128d7565b9392505050565b600060a082019050612b1a60008301886128d7565b612b2760208301876128d7565b612b3460408301866128aa565b612b4160608301856128e6565b612b4e60808301846128e6565b9695505050505050565b6000606082019050612b6d60008301866128d7565b612b7a6020830185612913565b612b876040830184612806565b949350505050565b600061012082019050612ba5600083018c6128e6565b612bb2602083018b6128e6565b612bbf604083018a6128e6565b612bcc60608301896128e6565b612bd960808301886128e6565b612be660a08301876128b9565b612bf360c08301866128b9565b612c0060e08301856128b9565b612c0e6101008301846128b9565b9a9950505050505050505050565b6000602082019050612c3160008301846128f5565b92915050565b6000602082019050612c4c6000830184612913565b92915050565b6000608082019050612c676000830187612913565b612c7460208301866128f5565b612c8160408301856126dd565b8181036060830152612c9381846126ec565b905095945050505050565b6000604082019050612cb36000830185612904565b612cc06020830184612904565b9392505050565b6000612cd1612ce2565b9050612cdd828261303e565b919050565b6000604051905090565b600067ffffffffffffffff821115612d0757612d06613118565b5b602082029050602081019050919050565b6000819050602082019050919050565b6000819050602082019050919050565b6000819050602082019050919050565b600081519050919050565b600081519050919050565b600081519050919050565b600081519050919050565b6000602082019050919050565b6000602082019050919050565b6000602082019050919050565b600082825260208201905092915050565b600082825260208201905092915050565b600082825260208201905092915050565b600081905092915050565b600082825260208201905092915050565b6000612df582612fb3565b9150612e0083612fb3565b9250827fffffffffffffffffffffffffffffffffffffffffffffffffffffffffffffffff03821115612e3557612e346130e9565b5b828201905092915050565b6000612e4b82612fe1565b9150612e5683612fe1565b9250826bffffffffffffffffffffffff03821115612e7757612e766130e9565b5b828201905092915050565b6000612e8d82612fb3565b9150612e9883612fb3565b9250817fffffffffffffffffffffffffffffffffffffffffffffffffffffffffffffffff0483118215151615612ed157612ed06130e9565b5b828202905092915050565b6000612ee782612fb3565b9150612ef283612fb3565b925082821015612f0557612f046130e9565b5b828203905092915050565b6000612f1b82612fe1565b9150612f2683612fe1565b925082821015612f3957612f386130e9565b5b828203905092915050565b6000612f4f82612f84565b9050919050565b60008115159050919050565b6000819050919050565b6000819050919050565b600061ffff82169050919050565b600073ffffffffffffffffffffffffffffffffffffffff82169050919050565b600062ffffff82169050919050565b6000819050919050565b600063ffffffff82169050919050565b600067ffffffffffffffff82169050919050565b60006bffffffffffffffffffffffff82169050919050565b600061300482612fe1565b9050919050565b60005b8381101561302957808201518184015260208101905061300e565b83811115613038576000848401525b50505050565b61304782613147565b810181811067ffffffffffffffff8211171561306657613065613118565b5b80604052505050565b600061307a82612fb3565b91507fffffffffffffffffffffffffffffffffffffffffffffffffffffffffffffffff8214156130ad576130ac6130e9565b5b600182019050919050565b60006130c382612fcd565b915067ffffffffffffffff8214156130de576130dd6130e9565b5b600182019050919050565b7f4e487b7100000000000000000000000000000000000000000000000000000000600052601160045260246000fd5b7f4e487b7100000000000000000000000000000000000000000000000000000000600052604160045260246000fd5b6000601f19601f8301169050919050565b7f6e6f7420696d706c656d656e7465640000000000000000000000000000000000600082015250565b7f6e6f6e6578697374656e74207265717565737400000000000000000000000000600082015250565b6131b381612f44565b81146131be57600080fd5b50565b6131ca81612f62565b81146131d557600080fd5b50565b6131e181612f76565b81146131ec57600080fd5b50565b6131f881612fb3565b811461320357600080fd5b50565b61320f81612fbd565b811461321a57600080fd5b50565b61322681612fcd565b811461323157600080fd5b50565b61323d81612fe1565b811461324857600080fd5b5056fea2646970667358221220991136fc638ff94730375109ce8634f1a6b20591896763fdddc438eed1528b4764736f6c63430008040033"
}