{
  "address": "0xB03E99F94635EEc6558E3B98012dcf028EB83370",
  "abi": [
    {
      "inputs": [
        {
          "internalType": "address",
          "name": "_fareTokenAddress",
          "type": "address"
        },
        {
          "internalType": "address",
          "name": "_rewardsAddress",
          "type": "address"
        }
      ],
      "stateMutability": "nonpayable",
      "type": "constructor"
    },
    {
      "anonymous": false,
      "inputs": [
        {
          "indexed": true,
          "internalType": "address",
          "name": "user",
          "type": "address"
        },
        {
          "indexed": false,
          "internalType": "uint256[]",
          "name": "roundIds",
          "type": "uint256[]"
        }
      ],
      "name": "BatchEntriesSettled",
      "type": "event"
    },
    {
      "anonymous": false,
      "inputs": [
        {
          "indexed": true,
          "internalType": "uint256",
          "name": "roundId",
          "type": "uint256"
        },
        {
          "indexed": true,
          "internalType": "address",
          "name": "user",
          "type": "address"
        }
      ],
      "name": "BatchEntryWithdraw",
      "type": "event"
    },
    {
      "anonymous": false,
      "inputs": [
        {
          "indexed": true,
          "internalType": "uint256",
          "name": "contractModeId",
          "type": "uint256"
        }
      ],
      "name": "ContractModeUpdated",
      "type": "event"
    },
    {
      "anonymous": false,
      "inputs": [
        {
          "indexed": true,
          "internalType": "uint256",
          "name": "roundId",
          "type": "uint256"
        },
        {
          "indexed": true,
          "internalType": "address",
          "name": "user",
          "type": "address"
        },
        {
          "indexed": false,
          "internalType": "bool",
          "name": "hasMinted",
          "type": "bool"
        }
      ],
      "name": "EntrySettled",
      "type": "event"
    },
    {
      "anonymous": false,
      "inputs": [
        {
          "indexed": true,
          "internalType": "uint256",
          "name": "roundId",
          "type": "uint256"
        },
        {
          "indexed": true,
          "internalType": "uint256",
          "name": "batchId",
          "type": "uint256"
        },
        {
          "indexed": true,
          "internalType": "address",
          "name": "user",
          "type": "address"
        }
      ],
      "name": "EntrySubmitted",
      "type": "event"
    },
    {
      "anonymous": false,
      "inputs": [
        {
          "indexed": true,
          "internalType": "uint256",
          "name": "roundId",
          "type": "uint256"
        },
        {
          "indexed": true,
          "internalType": "address",
          "name": "user",
          "type": "address"
        }
      ],
      "name": "NFTMint",
      "type": "event"
    },
    {
      "anonymous": false,
      "inputs": [
        {
          "indexed": true,
          "internalType": "uint256",
          "name": "roundId",
          "type": "uint256"
        },
        {
          "indexed": true,
          "internalType": "bytes32",
          "name": "randomHash",
          "type": "bytes32"
        },
        {
          "indexed": false,
          "internalType": "uint256",
          "name": "startedAt",
          "type": "uint256"
        }
      ],
      "name": "NewRoundStarted",
      "type": "event"
    },
    {
      "anonymous": false,
      "inputs": [
        {
          "indexed": false,
          "internalType": "address",
          "name": "account",
          "type": "address"
        }
      ],
      "name": "Paused",
      "type": "event"
    },
    {
      "anonymous": false,
      "inputs": [
        {
          "indexed": true,
          "internalType": "uint256",
          "name": "roundId",
          "type": "uint256"
        },
        {
          "indexed": true,
          "internalType": "bytes32",
          "name": "revealKey",
          "type": "bytes32"
        },
        {
          "indexed": false,
          "internalType": "uint256",
          "name": "fullRandomNum",
          "type": "uint256"
        },
        {
          "indexed": false,
          "internalType": "uint256",
          "name": "randomNum",
          "type": "uint256"
        },
        {
          "indexed": false,
          "internalType": "uint256",
          "name": "randomEliminator",
          "type": "uint256"
        }
      ],
      "name": "RoundConcluded",
      "type": "event"
    },
    {
      "anonymous": false,
      "inputs": [
        {
          "indexed": false,
          "internalType": "bool",
          "name": "isPaused",
          "type": "bool"
        }
      ],
      "name": "RoundPausedChanged",
      "type": "event"
    },
    {
      "anonymous": false,
      "inputs": [
        {
          "indexed": false,
          "internalType": "address",
          "name": "account",
          "type": "address"
        }
      ],
      "name": "Unpaused",
      "type": "event"
    },
    {
      "inputs": [],
      "name": "CONTRACT_EXPECTED_VALUE_CEILING",
      "outputs": [
        {
          "internalType": "uint256",
          "name": "",
          "type": "uint256"
        }
      ],
      "stateMutability": "view",
      "type": "function"
    },
    {
      "inputs": [],
      "name": "REWARDS_MINT_CAP",
      "outputs": [
        {
          "internalType": "uint256",
          "name": "",
          "type": "uint256"
        }
      ],
      "stateMutability": "view",
      "type": "function"
    },
    {
      "inputs": [
        {
          "internalType": "uint256",
          "name": "",
          "type": "uint256"
        },
        {
          "internalType": "address",
          "name": "",
          "type": "address"
        }
      ],
      "name": "batchEntryMap",
      "outputs": [
        {
          "internalType": "uint256",
          "name": "batchEntryId",
          "type": "uint256"
        },
        {
          "internalType": "address",
          "name": "user",
          "type": "address"
        },
        {
          "internalType": "bool",
          "name": "settled",
          "type": "bool"
        },
        {
          "internalType": "uint256",
          "name": "settledAt",
          "type": "uint256"
        },
        {
          "internalType": "uint256",
          "name": "totalEntryAmount",
          "type": "uint256"
        },
        {
          "internalType": "uint256",
          "name": "totalMintAmount",
          "type": "uint256"
        },
        {
          "internalType": "uint256",
          "name": "placedAt",
          "type": "uint256"
        },
        {
          "internalType": "uint256",
          "name": "withdrewAt",
          "type": "uint256"
        }
      ],
      "stateMutability": "view",
      "type": "function"
    },
    {
      "inputs": [
        {
          "internalType": "uint256[]",
          "name": "roundIds",
          "type": "uint256[]"
        },
        {
          "internalType": "address",
          "name": "user",
          "type": "address"
        }
      ],
      "name": "batchSettleEntries",
      "outputs": [],
      "stateMutability": "nonpayable",
      "type": "function"
    },
    {
      "inputs": [
        {
          "internalType": "bytes32",
          "name": "revealKey",
          "type": "bytes32"
        },
        {
          "internalType": "uint256",
          "name": "fullRandomNum",
          "type": "uint256"
        }
      ],
      "name": "concludeRound",
      "outputs": [],
      "stateMutability": "nonpayable",
      "type": "function"
    },
    {
      "inputs": [
        {
          "internalType": "uint256",
          "name": "",
          "type": "uint256"
        }
      ],
      "name": "contractModes",
      "outputs": [
        {
          "internalType": "uint256",
          "name": "id",
          "type": "uint256"
        },
        {
          "internalType": "uint256",
          "name": "cardinality",
          "type": "uint256"
        },
        {
          "internalType": "uint256",
          "name": "contractExpectedValueFloor",
          "type": "uint256"
        },
        {
          "internalType": "uint256",
          "name": "mintMultiplier",
          "type": "uint256"
        },
        {
          "internalType": "uint256",
          "name": "minAmount",
          "type": "uint256"
        },
        {
          "internalType": "uint256",
          "name": "maxAmount",
          "type": "uint256"
        },
        {
          "internalType": "uint256",
          "name": "entryLimit",
          "type": "uint256"
        },
        {
          "internalType": "bool",
          "name": "isActive",
          "type": "bool"
        }
      ],
      "stateMutability": "view",
      "type": "function"
    },
    {
      "inputs": [
        {
          "internalType": "uint256",
          "name": "roundId",
          "type": "uint256"
        }
      ],
      "name": "getAllUsersByRoundId",
      "outputs": [
        {
          "internalType": "address[]",
          "name": "users",
          "type": "address[]"
        }
      ],
      "stateMutability": "view",
      "type": "function"
    },
    {
      "inputs": [
        {
          "internalType": "uint256",
          "name": "roundId",
          "type": "uint256"
        }
      ],
      "name": "getBatchEntryCount",
      "outputs": [
        {
          "internalType": "uint256",
          "name": "count",
          "type": "uint256"
        }
      ],
      "stateMutability": "view",
      "type": "function"
    },
    {
      "inputs": [],
      "name": "getCurrentContractModeId",
      "outputs": [
        {
          "internalType": "uint256",
          "name": "id",
          "type": "uint256"
        }
      ],
      "stateMutability": "view",
      "type": "function"
    },
    {
      "inputs": [],
      "name": "getCurrentRoundId",
      "outputs": [
        {
          "internalType": "uint256",
          "name": "id",
          "type": "uint256"
        }
      ],
      "stateMutability": "view",
      "type": "function"
    },
    {
      "inputs": [
        {
          "internalType": "uint256",
          "name": "roundId",
          "type": "uint256"
        }
      ],
      "name": "getEliminatorsByRoundId",
      "outputs": [
        {
          "components": [
            {
              "internalType": "uint256",
              "name": "contractModeId",
              "type": "uint256"
            },
            {
              "internalType": "uint256",
              "name": "recordedExpectedValueFloor",
              "type": "uint256"
            },
            {
              "internalType": "bool",
              "name": "isEliminator",
              "type": "bool"
            }
          ],
          "internalType": "struct FareSpin.Eliminator[]",
          "name": "eliminators",
          "type": "tuple[]"
        }
      ],
      "stateMutability": "view",
      "type": "function"
    },
    {
      "inputs": [
        {
          "internalType": "uint256",
          "name": "roundId",
          "type": "uint256"
        },
        {
          "internalType": "address",
          "name": "user",
          "type": "address"
        }
      ],
      "name": "getEntriesByRoundUser",
      "outputs": [
        {
          "components": [
            {
              "internalType": "uint256",
              "name": "amount",
              "type": "uint256"
            },
            {
              "internalType": "uint256",
              "name": "contractModeId",
              "type": "uint256"
            },
            {
              "internalType": "uint256",
              "name": "pickedNumber",
              "type": "uint256"
            }
          ],
          "internalType": "struct FareSpin.Entry[]",
          "name": "",
          "type": "tuple[]"
        }
      ],
      "stateMutability": "view",
      "type": "function"
    },
    {
      "inputs": [
        {
          "internalType": "uint256",
          "name": "roundId",
          "type": "uint256"
        },
        {
          "internalType": "address",
          "name": "user",
          "type": "address"
        },
        {
          "internalType": "uint256",
          "name": "entryIdx",
          "type": "uint256"
        }
      ],
      "name": "getEntryByIndex",
      "outputs": [
        {
          "components": [
            {
              "internalType": "uint256",
              "name": "amount",
              "type": "uint256"
            },
            {
              "internalType": "uint256",
              "name": "contractModeId",
              "type": "uint256"
            },
            {
              "internalType": "uint256",
              "name": "pickedNumber",
              "type": "uint256"
            }
          ],
          "internalType": "struct FareSpin.Entry",
          "name": "",
          "type": "tuple"
        }
      ],
      "stateMutability": "view",
      "type": "function"
    },
    {
      "inputs": [
        {
          "internalType": "uint256",
          "name": "roundId",
          "type": "uint256"
        },
        {
          "internalType": "address",
          "name": "user",
          "type": "address"
        }
      ],
      "name": "getEntryCount",
      "outputs": [
        {
          "internalType": "uint256",
          "name": "count",
          "type": "uint256"
        }
      ],
      "stateMutability": "view",
      "type": "function"
    },
    {
      "inputs": [],
      "name": "getFareTokenAddress",
      "outputs": [
        {
          "internalType": "address",
          "name": "fareAddress",
          "type": "address"
        }
      ],
      "stateMutability": "view",
      "type": "function"
    },
    {
      "inputs": [
        {
          "internalType": "uint256",
          "name": "roundId",
          "type": "uint256"
        },
        {
          "internalType": "uint256",
          "name": "contractModeId",
          "type": "uint256"
        }
      ],
      "name": "getIsEliminator",
      "outputs": [
        {
          "internalType": "bool",
          "name": "isEliminator",
          "type": "bool"
        }
      ],
      "stateMutability": "view",
      "type": "function"
    },
    {
      "inputs": [],
      "name": "isRoundPaused",
      "outputs": [
        {
          "internalType": "bool",
          "name": "",
          "type": "bool"
        }
      ],
      "stateMutability": "view",
      "type": "function"
    },
    {
      "inputs": [],
      "name": "owner",
      "outputs": [
        {
          "internalType": "address",
          "name": "",
          "type": "address"
        }
      ],
      "stateMutability": "view",
      "type": "function"
    },
    {
      "inputs": [],
      "name": "paused",
      "outputs": [
        {
          "internalType": "bool",
          "name": "",
          "type": "bool"
        }
      ],
      "stateMutability": "view",
      "type": "function"
    },
    {
      "inputs": [
        {
          "components": [
            {
              "internalType": "uint256",
              "name": "amount",
              "type": "uint256"
            },
            {
              "internalType": "uint256",
              "name": "contractModeId",
              "type": "uint256"
            },
            {
              "internalType": "uint256",
              "name": "pickedNumber",
              "type": "uint256"
            }
          ],
          "internalType": "struct FareSpin.Entry[]",
          "name": "entries",
          "type": "tuple[]"
        }
      ],
      "name": "placeBatchEntry",
      "outputs": [],
      "stateMutability": "nonpayable",
      "type": "function"
    },
    {
      "inputs": [
        {
          "internalType": "uint256",
          "name": "",
          "type": "uint256"
        }
      ],
      "name": "randomHashMap",
      "outputs": [
        {
          "internalType": "bytes32",
          "name": "",
          "type": "bytes32"
        }
      ],
      "stateMutability": "view",
      "type": "function"
    },
    {
      "inputs": [],
      "name": "rewardsAddress",
      "outputs": [
        {
          "internalType": "address",
          "name": "",
          "type": "address"
        }
      ],
      "stateMutability": "view",
      "type": "function"
    },
    {
      "inputs": [],
      "name": "rewardsMint",
      "outputs": [
        {
          "internalType": "uint256",
          "name": "",
          "type": "uint256"
        }
      ],
      "stateMutability": "view",
      "type": "function"
    },
    {
      "inputs": [
        {
          "internalType": "uint256",
          "name": "",
          "type": "uint256"
        }
      ],
      "name": "rounds",
      "outputs": [
        {
          "internalType": "uint256",
          "name": "id",
          "type": "uint256"
        },
        {
          "internalType": "uint256",
          "name": "startedAt",
          "type": "uint256"
        },
        {
          "internalType": "uint256",
          "name": "endedAt",
          "type": "uint256"
        },
        {
          "internalType": "bytes32",
          "name": "randomHash",
          "type": "bytes32"
        },
        {
          "internalType": "bytes32",
          "name": "revealKey",
          "type": "bytes32"
        },
        {
          "internalType": "uint256",
          "name": "fullRandomNum",
          "type": "uint256"
        },
        {
          "internalType": "uint256",
          "name": "randomNum",
          "type": "uint256"
        },
        {
          "internalType": "uint256",
          "name": "randomEliminator",
          "type": "uint256"
        }
      ],
      "stateMutability": "view",
      "type": "function"
    },
    {
      "inputs": [
        {
          "internalType": "uint256",
          "name": "contractModeId",
          "type": "uint256"
        },
        {
          "internalType": "uint256",
          "name": "_contractExpectedValueFloor",
          "type": "uint256"
        }
      ],
      "name": "setContractExpectedValueFloor",
      "outputs": [],
      "stateMutability": "nonpayable",
      "type": "function"
    },
    {
      "inputs": [
        {
          "internalType": "uint256",
          "name": "cardinality",
          "type": "uint256"
        },
        {
          "internalType": "uint256",
          "name": "contractExpectedValueFloor",
          "type": "uint256"
        },
        {
          "internalType": "uint256",
          "name": "mintMultiplier",
          "type": "uint256"
        },
        {
          "internalType": "uint256",
          "name": "minAmount",
          "type": "uint256"
        },
        {
          "internalType": "uint256",
          "name": "maxAmount",
          "type": "uint256"
        },
        {
          "internalType": "uint256",
          "name": "entryLimit",
          "type": "uint256"
        }
      ],
      "name": "setContractMode",
      "outputs": [],
      "stateMutability": "nonpayable",
      "type": "function"
    },
    {
      "inputs": [
        {
          "internalType": "uint256",
          "name": "contractModeId",
          "type": "uint256"
        },
        {
          "internalType": "uint256",
          "name": "entryLimit",
          "type": "uint256"
        }
      ],
      "name": "setContractModeEntryLimit",
      "outputs": [],
      "stateMutability": "nonpayable",
      "type": "function"
    },
    {
      "inputs": [
        {
          "internalType": "uint256",
          "name": "contractModeId",
          "type": "uint256"
        },
        {
          "internalType": "bool",
          "name": "isActive",
          "type": "bool"
        }
      ],
      "name": "setContractModeIsActive",
      "outputs": [],
      "stateMutability": "nonpayable",
      "type": "function"
    },
    {
      "inputs": [
        {
          "internalType": "uint256",
          "name": "contractModeId",
          "type": "uint256"
        },
        {
          "internalType": "uint256",
          "name": "minAmount",
          "type": "uint256"
        },
        {
          "internalType": "uint256",
          "name": "maxAmount",
          "type": "uint256"
        }
      ],
      "name": "setContractModeMinMax",
      "outputs": [],
      "stateMutability": "nonpayable",
      "type": "function"
    },
    {
      "inputs": [
        {
          "internalType": "address",
          "name": "_fareTokenAddress",
          "type": "address"
        }
      ],
      "name": "setFareToken",
      "outputs": [],
      "stateMutability": "nonpayable",
      "type": "function"
    },
    {
      "inputs": [
        {
          "internalType": "bool",
          "name": "paused",
          "type": "bool"
        }
      ],
      "name": "setPauseContract",
      "outputs": [],
      "stateMutability": "nonpayable",
      "type": "function"
    },
    {
      "inputs": [
        {
          "internalType": "address",
          "name": "_rewardsAddress",
          "type": "address"
        }
      ],
      "name": "setRewardsAddress",
      "outputs": [],
      "stateMutability": "nonpayable",
      "type": "function"
    },
    {
      "inputs": [
        {
          "internalType": "uint256",
          "name": "percent",
          "type": "uint256"
        }
      ],
      "name": "setRewardsMint",
      "outputs": [],
      "stateMutability": "nonpayable",
      "type": "function"
    },
    {
      "inputs": [
        {
          "internalType": "bool",
          "name": "paused",
          "type": "bool"
        }
      ],
      "name": "setRoundPaused",
      "outputs": [],
      "stateMutability": "nonpayable",
      "type": "function"
    },
    {
      "inputs": [
        {
          "internalType": "uint256",
          "name": "roundId",
          "type": "uint256"
        },
        {
          "internalType": "address",
          "name": "user",
          "type": "address"
        }
      ],
      "name": "settleBatchEntry",
      "outputs": [],
      "stateMutability": "nonpayable",
      "type": "function"
    },
    {
      "inputs": [
        {
          "internalType": "bytes32",
          "name": "randomHash",
          "type": "bytes32"
        }
      ],
      "name": "startNewRound",
      "outputs": [],
      "stateMutability": "nonpayable",
      "type": "function"
    },
    {
      "inputs": [],
      "name": "withdrawalBatchEntry",
      "outputs": [],
      "stateMutability": "nonpayable",
      "type": "function"
    },
    {
      "inputs": [],
      "name": "withdrawalPeriod",
      "outputs": [
        {
          "internalType": "uint256",
          "name": "",
          "type": "uint256"
        }
      ],
      "stateMutability": "view",
      "type": "function"
    }
  ],
  "transactionHash": "0xc396971505eb0f40909faa327fe96662221549f3e781efa0bc7c810913f827ce",
  "args": [
    "0x309F2a7556c8e53515e045c23656A6cEf035cDb4",
    "0x58C4de90C4E4256f33919b79856db2BB6CBB52F4"
  ],
  "numDeployments": 1,
  "solcInputHash": "c63ef65c01606f6b1a22ee6232f6bfbc",
  "bytecode": "0x6080604052662386f26fc100006005556006805460ff60a01b19169055612a306007553480156200002f57600080fd5b50604051620036d0380380620036d083398101604081905262000052916200019e565b60016000819055805460ff191690556001600160a01b038216620000cf5760405162461bcd60e51b815260206004820152602960248201527f4e6f7420612076616c6964206164647265737320666f72205f66617265546f6b604482015268656e4164647265737360b81b60648201526084015b60405180910390fd5b6001600160a01b038116620001375760405162461bcd60e51b815260206004820152602760248201527f4e6f7420612076616c6964206164647265737320666f72205f726577617264736044820152664164647265737360c81b6064820152608401620000c6565b60018054610100600160a81b0319163361010002179055600280546001600160a01b03199081166001600160a01b03948516179091556006805490911691909216179055620001d6565b80516001600160a01b03811681146200019957600080fd5b919050565b60008060408385031215620001b257600080fd5b620001bd8362000181565b9150620001cd6020840162000181565b90509250929050565b6134ea80620001e66000396000f3fe608060405234801561001057600080fd5b50600436106102325760003560e01c8063812391f011610130578063b04d52bf116100b8578063e601af731161007c578063e601af73146106b3578063eb8bbe38146106c6578063f9985f26146106ce578063fd41631a146106df578063fed71e65146106f257600080fd5b8063b04d52bf146105e0578063bb50a772146105f3578063bca7093d14610684578063c0973eed1461068d578063cf5b8eda146106a057600080fd5b80638da5cb5b116100ff5780638da5cb5b1461053857806390a04d3414610562578063a49a75a514610575578063ad9ed3a2146105ad578063aec0bc70146105c057600080fd5b8063812391f01461046357806381a38061146104865780638906758d146104995780638c65c81f146104ac57600080fd5b80634998f2c4116101be5780635c975abb116101825780635c975abb146104175780636626418714610422578063741889691461043557806374ba284f14610448578063767cc6431461045b57600080fd5b80634998f2c41461039d5780634cc08581146103ac578063530759e9146103cc5780635727e25d146103ef578063582dadf5146103f757600080fd5b8063171b611111610205578063171b6111146103355780631e1e77d81461034857806327dba8ad146103575780633980b7bf1461036a5780634851c6591461037d57600080fd5b80630727ad251461023757806309003b50146102535780630f1cf7b3146102735780631111691014610288575b600080fd5b61024060055481565b6040519081526020015b60405180910390f35b610266610261366004612dfd565b610706565b60405161024a9190612e29565b610286610281366004612f1f565b6107a4565b005b6102ec610296366004612dfd565b600a602090815260009283526040808420909152908252902080546001820154600283015460038401546004850154600586015460069096015494956001600160a01b03851695600160a01b90950460ff169488565b604080519889526001600160a01b039097166020890152941515958701959095526060860192909252608085015260a084015260c083019190915260e08201526101000161024a565b610286610343366004612fc7565b610c76565b61024067016345785d8a000081565b610286610365366004612fe9565b610f2d565b610286610378366004612fc7565b6110de565b61039061038b36600461302c565b6111b2565b60405161024a9190613045565b610240670de0b6b3a764000081565b6102406103ba36600461302c565b600b6020526000908152604090205481565b6103df6103da366004612fc7565b611246565b604051901515815260200161024a565b610240611287565b61040a61040536600461302c565b611297565b60405161024a91906130a0565b60015460ff166103df565b61028661043036600461302c565b611306565b610286610443366004612dfd565b6114a0565b6102866104563660046130e1565b611873565b610240611960565b61024061047136600461302c565b60009081526009602052604090206008015490565b61028661049436600461310d565b61196b565b6102866104a736600461310d565b611a12565b6104fd6104ba36600461302c565b6009602052600090815260409020805460018201546002830154600384015460048501546005860154600687015460079097015495969495939492939192909188565b604080519889526020890197909752958701949094526060860192909252608085015260a084015260c083015260e08201526101000161024a565b60015461010090046001600160a01b03165b6040516001600160a01b03909116815260200161024a565b61028661057036600461313f565b611ab9565b610240610583366004612dfd565b6000918252600a602090815260408084206001600160a01b03909316845291905290206007015490565b6102866105bb366004612fc7565b611b3f565b6105d36105ce366004613162565b611c1d565b60405161024a9190613197565b6102866105ee36600461302c565b611cbc565b61064761060136600461302c565b6008602052600090815260409020805460018201546002830154600384015460048501546005860154600687015460079097015495969495939492939192909160ff1688565b604080519889526020890197909752958701949094526060860192909252608085015260a084015260c0830152151560e08201526101000161024a565b61024060075481565b60065461054a906001600160a01b031681565b6102866106ae3660046131b8565b611d48565b6102866106c13660046131b8565b611dcf565b610286611e17565b6002546001600160a01b031661054a565b6102866106ed3660046131d3565b612092565b6006546103df90600160a01b900460ff1681565b6000828152600a602090815260408083206001600160a01b03851684528252808320600701805482518185028101850190935280835260609493849084015b828210156107955783829060005260206000209060030201604051806060016040529081600082015481526020016001820154815260200160028201548152505081526020019060010190610745565b50929450505050505b92915050565b6107ac612a45565b6107b4612a9f565b600082511161080a5760405162461bcd60e51b815260206004820181905260248201527f4261746368456e747279206c6973742063616e6e6f7420626520656d7074792e60448201526064015b60405180910390fd5b60158251106108735760405162461bcd60e51b815260206004820152602f60248201527f596f752063616e206f6e6c7920736574746c6520323020626174636820656e7460448201526e3934b2b99030ba1030903a34b6b29760891b6064820152608401610801565b60005b8251811015610c2657600083828151811061089357610893613291565b6020908102919091018101516000818152600a835260408082206001600160a01b03881683528452808220600781018054835181880281018801909452808452949650909492939192909190849084015b8282101561093457838290600052602060002090600302016040518060600160405290816000820154815260200160018201548152602001600282015481525050815260200190600101906108e4565b505050509050816006015460001461095e5760405162461bcd60e51b8152600401610801906132a7565b600382015461097f5760405162461bcd60e51b8152600401610801906132ea565b6001820154600160a01b900460ff16156109ab5760405162461bcd60e51b815260040161080190613321565b826109b560035490565b116109fb5760405162461bcd60e51b8152602060048201526016602482015275149bdd5b99081b9bdd081e595d081c995cdbdb1d995960521b6044820152606401610801565b60008060005b8351811015610b7b57610a3186858381518110610a2057610a20613291565b602002602001015160200151611246565b8015610a3b575082155b15610a5357610a4a8689612ae5565b60019250610b69565b600060086000868481518110610a6b57610a6b613291565b60209081029190910181015181015182528181019290925260409081016000908120825161010081018452815481526001820154818601526002820154818501526003820154606082015260048201546080820152600582015460a082015260068083015460c083015260079092015460ff16151560e08201528b835260099094529190200154865191925090869084908110610b0a57610b0a613291565b602002602001015160400151826020015182610b269190613366565b1415610b66578160600151868481518110610b4357610b43613291565b602002602001015160000151610b599190613390565b610b6390856133af565b93505b50505b80610b73816133c7565b915050610a01565b508015610bf4576002546001850154604051632bf545c760e11b81526001600160a01b039182166004820152602481018490529116906357ea8b8e90604401600060405180830381600087803b158015610bd457600080fd5b505af1158015610be8573d6000803e3d6000fd5b50505050600484018190555b50505060018101805460ff60a01b1916600160a01b179055426002909101555080610c1e816133c7565b915050610876565b50806001600160a01b03167f798f8a8a70fdda84420f8148df89e16b8f46a006f74d812a12fe555b64c9abcb83604051610c6091906133e2565b60405180910390a2610c726001600055565b5050565b60015461010090046001600160a01b03163314610ca55760405162461bcd60e51b81526004016108019061341a565b610cad612a9f565b6000610cb860035490565b600081815260096020908152604091829020600381015483519283018890529282018690529293506060016040516020818303038152906040528051906020012014610d525760405162461bcd60e51b8152602060048201526024808201527f72657665616c4b657920616e642072616e646f6d6e65737320697320696e76616044820152633634b21760e11b6064820152608401610801565b600060096000610d6160035490565b815260208101919091526040016000206008015411610db75760405162461bcd60e51b81526020600482015260126024820152712737903ab9b2b9399034b7103937bab7321760711b6044820152606401610801565b600654600160a01b900460ff16610e1c5760405162461bcd60e51b815260206004820152602360248201527f4d75737420706175736520726f756e64206265666f726520636f6e636c75646960448201526237339760e91b6064820152608401610801565b60008160010154118015610e3257506002810154155b610e7e5760405162461bcd60e51b815260206004820152601860248201527f526f756e6420616c726561647920636f6e636c756465642e00000000000000006044820152606401610801565b6000610e8b606485613366565b90506000610ea1670de0b6b3a764000086613366565b848455600584018690556006840183905560048401879055600784018190554260028501559050610ed28185612b27565b610ee0600380546001019055565b6040805186815260208101849052908101829052869085907ffa7649dce8dd2a5bb5b648e3fc101302f45a5e9ffa996d546837446f8c655b8d9060600160405180910390a3505050505050565b60015461010090046001600160a01b03163314610f5c5760405162461bcd60e51b81526004016108019061341a565b85811115610fac5760405162461bcd60e51b815260206004820152601e60248201527f4c696d69742067726561746572207468616e2063617264696e616c69747900006044820152606401610801565b600083118015610fbc5750600082115b8015610fc757508183115b156110145760405162461bcd60e51b815260206004820181905260248201527f6d696e416d6f756e742067726561746572207468616e206d6178416d6f756e746044820152606401610801565b600061101f60045490565b604080516101008101825282815260208082018b81528284018b8152606084018b8152608085018b815260a086018b815260c087018b8152600160e0890181815260008c815260089099529990972097518855945187870155925160028701559051600386015551600480860191909155905160058501559051600684015592516007909201805460ff19169215159290921790915581540190559050604051819060008051602061349583398151915290600090a250505050505050565b60015461010090046001600160a01b0316331461110d5760405162461bcd60e51b81526004016108019061341a565b600454821061112e5760405162461bcd60e51b815260040161080190613451565b670de0b6b3a764000081106111855760405162461bcd60e51b815260206004820152601f60248201527f466c6f6f72206d757374206265206c657373207468616e206365696c696e67006044820152606401610801565b60008281526008602052604080822060020183905551839160008051602061349583398151915291a25050565b606060096000838152602001908152602001600020600901805480602002602001604051908101604052809291908181526020016000905b8282101561123b5760008481526020908190206040805160608101825260038602909201805483526001808201548486015260029091015460ff1615159183019190915290835290920191016111ea565b505050509050919050565b600082815260096020819052604082200180548390811061126957611269613291565b600091825260209091206002600390920201015460ff169392505050565b600061129260035490565b905090565b6000818152600960209081526040918290206008018054835181840281018401909452808452606093928301828280156112fa57602002820191906000526020600020905b81546001600160a01b031681526001909101906020018083116112dc575b50505050509050919050565b60015461010090046001600160a01b031633146113355760405162461bcd60e51b81526004016108019061341a565b61133d612a9f565b600061134860035490565b6000818152600960205260409020909150826113a65760405162461bcd60e51b815260206004820152601760248201527f72616e646f6d486173682069732072657175697265642e0000000000000000006044820152606401610801565b60018101541580156113ba57506002810154155b6113ff5760405162461bcd60e51b81526020600482015260166024820152752937bab7321030b63932b0b23c9039ba30b93a32b21760511b6044820152606401610801565b426001820155600381018390556000828152600b602090815260408083208690556006805460ff60a01b19169055519182527f566e91f99008ecb36dceb72af2a1cd0519db0ccef530792829d62681fd319b30910160405180910390a182827f80c2dc9c61b0a154b438dfd6000927bf269e5ee544a24e81fb0f4510c82cb870836001015460405161149391815260200190565b60405180910390a3505050565b6114a8612a45565b6114b0612a9f565b6000828152600a602090815260408083206001600160a01b03851684528252808320600781018054835181860281018601909452808452919493909190849084015b8282101561154257838290600052602060002090600302016040518060600160405290816000820154815260200160018201548152602001600282015481525050815260200190600101906114f2565b505050509050816006015460001461156c5760405162461bcd60e51b8152600401610801906132a7565b600382015461158d5760405162461bcd60e51b8152600401610801906132ea565b6001820154600160a01b900460ff16156115b95760405162461bcd60e51b815260040161080190613321565b836115c360035490565b116116095760405162461bcd60e51b8152602060048201526016602482015275149bdd5b99081b9bdd081e595d081c995cdbdb1d995960521b6044820152606401610801565b60008060005b83518110156117875761162e87858381518110610a2057610a20613291565b8015611638575082155b1561165f5760018501546116569088906001600160a01b0316612ae5565b60019250611775565b60006008600086848151811061167757611677613291565b60209081029190910181015181015182528181019290925260409081016000908120825161010081018452815481526001820154818601526002820154818501526003820154606082015260048201546080820152600582015460a082015260068083015460c083015260079092015460ff16151560e08201528c83526009909452919020015486519192509086908490811061171657611716613291565b6020026020010151604001518260200151826117329190613366565b141561177257816060015186848151811061174f5761174f613291565b6020026020010151600001516117659190613390565b61176f90856133af565b93505b50505b8061177f816133c7565b91505061160f565b508015611800576002546001850154604051632bf545c760e11b81526001600160a01b039182166004820152602481018490529116906357ea8b8e90604401600060405180830381600087803b1580156117e057600080fd5b505af11580156117f4573d6000803e3d6000fd5b50505050600484018190555b600184018054600160a01b60ff60a01b19821617909155426002860155600485015460405190151581526001600160a01b039091169087907f488ab6b2e5b3b17c2e7ed02f7dd03132639a79fa01716841f9452383627b227f9060200160405180910390a350505050610c726001600055565b60015461010090046001600160a01b031633146118a25760405162461bcd60e51b81526004016108019061341a565b6000821180156118b25750600081115b80156118bd57508082115b1561190a5760405162461bcd60e51b815260206004820181905260248201527f6d696e416d6f756e742067726561746572207468616e206d6178416d6f756e746044820152606401610801565b600454831061192b5760405162461bcd60e51b815260040161080190613451565b6000838152600860205260408082206004810185905560050183905551849160008051602061349583398151915291a2505050565b600061129260045490565b60015461010090046001600160a01b0316331461199a5760405162461bcd60e51b81526004016108019061341a565b6001600160a01b0381166119f05760405162461bcd60e51b815260206004820152601c60248201527f5f66617265546f6b656e4164647265737320697320696e76616c6964000000006044820152606401610801565b600280546001600160a01b0319166001600160a01b0392909216919091179055565b60015461010090046001600160a01b03163314611a415760405162461bcd60e51b81526004016108019061341a565b6001600160a01b038116611a975760405162461bcd60e51b815260206004820152601a60248201527f5f726577617264734164647265737320697320696e76616c69640000000000006044820152606401610801565b600680546001600160a01b0319166001600160a01b0392909216919091179055565b60015461010090046001600160a01b03163314611ae85760405162461bcd60e51b81526004016108019061341a565b6004548210611b095760405162461bcd60e51b815260040161080190613451565b600082815260086020526040808220600701805460ff191684151517905551839160008051602061349583398151915291a25050565b60015461010090046001600160a01b03163314611b6e5760405162461bcd60e51b81526004016108019061341a565b6004548210611b8f5760405162461bcd60e51b815260040161080190613451565b600082815260086020526040902060010154811115611bf05760405162461bcd60e51b815260206004820152601860248201527f656e7472794c696d6974203e2063617264696e616c69747900000000000000006044820152606401610801565b60008281526008602052604080822060060183905551839160008051602061349583398151915291a25050565b611c4160405180606001604052806000815260200160008152602001600081525090565b6000848152600a602090815260408083206001600160a01b03871684529091528120600701805484908110611c7857611c78613291565b906000526020600020906003020160405180606001604052908160008201548152602001600182015481526020016002820154815250509050809150509392505050565b60015461010090046001600160a01b03163314611ceb5760405162461bcd60e51b81526004016108019061341a565b67016345785d8a0000811115611d435760405162461bcd60e51b815260206004820152601d60248201527f52657761726473206d696e742025206d757374206265203c3d203130250000006044820152606401610801565b600555565b60015461010090046001600160a01b03163314611d775760405162461bcd60e51b81526004016108019061341a565b60068054821515600160a01b0260ff60a01b199091161790556040517f566e91f99008ecb36dceb72af2a1cd0519db0ccef530792829d62681fd319b3090611dc490831515815260200190565b60405180910390a150565b60015461010090046001600160a01b03163314611dfe5760405162461bcd60e51b81526004016108019061341a565b8015611e0f57611e0c612bd1565b50565b611e0c612c25565b611e1f612a45565b611e27612a9f565b6000611e3260035490565b6000818152600a602090815260408083203384529091529020600381015491925090611e705760405162461bcd60e51b8152600401610801906132ea565b600681015415611ebb5760405162461bcd60e51b8152602060048201526016602482015275416c726561647920776974686472657720656e74727960501b6044820152606401610801565b426007548260050154611ece91906133af565b10611f1b5760405162461bcd60e51b815260206004820152601c60248201527f5769746864726177616c206e6f7420617661696c61626c6520796574000000006044820152606401610801565b6001810154600160a01b900460ff1615611f475760405162461bcd60e51b815260040161080190613321565b4260068201556002546003820154604051632bf545c760e11b815233600482015260248101919091526001600160a01b03909116906357ea8b8e90604401600060405180830381600087803b158015611f9f57600080fd5b505af1158015611fb3573d6000803e3d6000fd5b505060025460065460055460038601546001600160a01b039384169550637f923e6094509290911691670de0b6b3a764000091611fef91613390565b611ff99190613480565b6040516001600160e01b031960e085901b1681526001600160a01b0390921660048301526024820152604401600060405180830381600087803b15801561203f57600080fd5b505af1158015612053573d6000803e3d6000fd5b50506040513392508491507fc61164bc00a37712d7436ca60d4edc232e411e4ef4dd785157848daa6cddf68a90600090a350506120906001600055565b565b61209a612a45565b6120a2612a9f565b600654600160a01b900460ff16156120ee5760405162461bcd60e51b815260206004820152600f60248201526e149bdd5b99081a5cc81c185d5cd959608a1b6044820152606401610801565b6000600960006120fd60035490565b81526020019081526020016000206001015411801561213a57506009600061212460035490565b8152602001908152602001600020600201546000145b6121865760405162461bcd60e51b815260206004820152601a60248201527f526f756e6420686173206e6f742073746172746564207965742e0000000000006044820152606401610801565b600061219160045490565b825190915060006121a160035490565b600081815260096020526040812060080154919250806121bf612c5e565b6000858152600a6020908152604080832033845290915290206003810154919250901561222e5760405162461bcd60e51b815260206004820181905260248201527f416c726561647920656e746572656420696e2063757272656e7420726f756e646044820152606401610801565b60005b868110156127e15760045489828151811061224e5761224e613291565b602002602001015160200151106122775760405162461bcd60e51b815260040161080190613451565b6000600860008b848151811061228f5761228f613291565b602002602001015160200151815260200190815260200160002060405180610100016040529081600082015481526020016001820154815260200160028201548152602001600382015481526020016004820154815260200160058201548152602001600682015481526020016007820160009054906101000a900460ff161515151581525050905089828151811061232a5761232a613291565b6020026020010151600001516000141561237e5760405162461bcd60e51b8152602060048201526015602482015274416d6f756e742063616e6e6f74206265207a65726f60581b6044820152606401610801565b8060e001516123cf5760405162461bcd60e51b815260206004820152601b60248201527f436f6e7472616374206d6f6465206973206e6f742061637469766500000000006044820152606401610801565b80602001518a83815181106123e6576123e6613291565b602002602001015160400151106124375760405162461bcd60e51b815260206004820152601560248201527424b73b30b634b2103834b1b5b2b210373ab6b132b960591b6044820152606401610801565b8381600001518151811061244d5761244d613291565b6020026020010151604001518a838151811061246b5761246b613291565b6020026020010151604001518151811061248757612487613291565b6020026020010151156124e75760405162461bcd60e51b815260206004820152602260248201527f4475706c6963617465207069636b65644e756d62657220627920636f6e74726160448201526118dd60f21b6064820152608401610801565b6001848260000151815181106124ff576124ff613291565b6020026020010151604001518b848151811061251d5761251d613291565b6020026020010151604001518151811061253957612539613291565b9115156020928302919091019091015260a08101511561263c5789828151811061256557612565613291565b6020026020010151600001518482600001518151811061258757612587613291565b60200260200101516000015161259d91906133af565b848260000151815181106125b3576125b3613291565b60209081029190910101515260a08101518151855186919081106125d9576125d9613291565b6020026020010151600001511061263c5760405162461bcd60e51b815260206004820152602160248201527f436f6e7472616374206d6f6465206d617820616d6f756e7420657863656564656044820152601960fa1b6064820152608401610801565b8381600001518151811061265257612652613291565b602002602001015160200151600161266a91906133af565b8482600001518151811061268057612680613291565b602002602001015160200181815250508060c00151848260000151815181106126ab576126ab613291565b60200260200101516020015111156127105760405162461bcd60e51b815260206004820152602260248201527f436f6e7472616374206d6f646520656e747279206c696d697420657863656564604482015261195960f21b6064820152608401610801565b89828151811061272257612722613291565b6020026020010151600001518561273991906133af565b94508260070160405180606001604052808c858151811061275c5761275c613291565b6020026020010151600001518152602001836000015181526020018c858151811061278957612789613291565b60209081029190910181015160409081015190925283546001818101865560009586529482902084516003909202019081559083015193810193909355015160029091015550806127d9816133c7565b915050612231565b5060005b8781101561289b576000818152600860205260409020600401541580159061283c5750600081815260086020526040902060040154835184908390811061282e5761282e613291565b602002602001015160000151105b156128895760405162461bcd60e51b815260206004820181905260248201527f436f6e7472616374206d6f6465206d696e20616d6f756e74206e6f74206d65746044820152606401610801565b80612893816133c7565b9150506127e5565b5083815560018082018054600384018690556000600480860182905560ff60a01b19339081166001600160a81b031990941693909317909355426005860155888152600960209081526040808320600801805496870181558352912090930180546001600160a01b0319168217905560025492516303fc91f360e51b815291820152602481018590526001600160a01b0390911690637f923e6090604401600060405180830381600087803b15801561295357600080fd5b505af1158015612967573d6000803e3d6000fd5b50506002546006546005546001600160a01b0392831694506357ea8b8e9350911690670de0b6b3a76400009061299d9088613390565b6129a79190613480565b6040516001600160e01b031960e085901b1681526001600160a01b0390921660048301526024820152604401600060405180830381600087803b1580156129ed57600080fd5b505af1158015612a01573d6000803e3d6000fd5b505060405133925086915087907fc03e0b12906d102f05416b84b16272e887bdcc9e0ec10d3b18a2a88d88edfdd590600090a450505050505050611e0c6001600055565b60026000541415612a985760405162461bcd60e51b815260206004820152601f60248201527f5265656e7472616e637947756172643a207265656e7472616e742063616c6c006044820152606401610801565b6002600055565b60015460ff16156120905760405162461bcd60e51b815260206004820152601060248201526f14185d5cd8589b194e881c185d5cd95960821b6044820152606401610801565b612aed612a9f565b6040516001600160a01b0382169083907f694782527f5a66f715f32799c163a69579929a5548642eb0e121da554410171290600090a35050565b6000612b3260045490565b905060005b81811015612bcb576000838152600960208181526040808420815160608101835286815286865260088085528387206002908101548387018181529287528c10159483019485529290950180546001808201835591885294909620905160039094020192835592519382019390935591519101805460ff191691151591909117905580612bc3816133c7565b915050612b37565b50505050565b612bd9612a9f565b6001805460ff1916811790557f62e78cea01bee320cd4e420270b5ea74000d11b0c9f74754ebdbfc544b05a258335b6040516001600160a01b03909116815260200160405180910390a1565b612c2d612d98565b6001805460ff191690557f5db9ee0a495bf2e6ff9c91a7834c1ba4fdd244a5e8aa4e537bd38aeae4b073aa33612c08565b60606000612c6b60045490565b905060008167ffffffffffffffff811115612c8857612c88612e8b565b604051908082528060200260200182016040528015612cdd57816020015b612cca60405180606001604052806000815260200160008152602001606081525090565b815260200190600190039081612ca65790505b50905060005b8151811015612d915760405180606001604052806000815260200160008152602001600860008481526020019081526020016000206001015467ffffffffffffffff811115612d3457612d34612e8b565b604051908082528060200260200182016040528015612d5d578160200160208202803683370190505b50815250828281518110612d7357612d73613291565b60200260200101819052508080612d89906133c7565b915050612ce3565b5092915050565b60015460ff166120905760405162461bcd60e51b815260206004820152601460248201527314185d5cd8589b194e881b9bdd081c185d5cd95960621b6044820152606401610801565b80356001600160a01b0381168114612df857600080fd5b919050565b60008060408385031215612e1057600080fd5b82359150612e2060208401612de1565b90509250929050565b6020808252825182820181905260009190848201906040850190845b81811015612e7f57612e6c8385518051825260208082015190830152604090810151910152565b9284019260609290920191600101612e45565b50909695505050505050565b634e487b7160e01b600052604160045260246000fd5b6040516060810167ffffffffffffffff81118282101715612ec457612ec4612e8b565b60405290565b604051601f8201601f1916810167ffffffffffffffff81118282101715612ef357612ef3612e8b565b604052919050565b600067ffffffffffffffff821115612f1557612f15612e8b565b5060051b60200190565b60008060408385031215612f3257600080fd5b823567ffffffffffffffff811115612f4957600080fd5b8301601f81018513612f5a57600080fd5b80356020612f6f612f6a83612efb565b612eca565b82815260059290921b83018101918181019088841115612f8e57600080fd5b938201935b83851015612fac57843582529382019390820190612f93565b9550612fbb9050868201612de1565b93505050509250929050565b60008060408385031215612fda57600080fd5b50508035926020909101359150565b60008060008060008060c0878903121561300257600080fd5b505084359660208601359650604086013595606081013595506080810135945060a0013592509050565b60006020828403121561303e57600080fd5b5035919050565b602080825282518282018190526000919060409081850190868401855b8281101561309357815180518552868101518786015285015115158585015260609093019290850190600101613062565b5091979650505050505050565b6020808252825182820181905260009190848201906040850190845b81811015612e7f5783516001600160a01b0316835292840192918401916001016130bc565b6000806000606084860312156130f657600080fd5b505081359360208301359350604090920135919050565b60006020828403121561311f57600080fd5b61312882612de1565b9392505050565b80358015158114612df857600080fd5b6000806040838503121561315257600080fd5b82359150612e206020840161312f565b60008060006060848603121561317757600080fd5b8335925061318760208501612de1565b9150604084013590509250925092565b8151815260208083015190820152604080830151908201526060810161079e565b6000602082840312156131ca57600080fd5b6131288261312f565b600060208083850312156131e657600080fd5b823567ffffffffffffffff8111156131fd57600080fd5b8301601f8101851361320e57600080fd5b803561321c612f6a82612efb565b8181526060918202830184019184820191908884111561323b57600080fd5b938501935b838510156132855780858a0312156132585760008081fd5b613260612ea1565b8535815286860135878201526040808701359082015283529384019391850191613240565b50979650505050505050565b634e487b7160e01b600052603260045260246000fd5b60208082526023908201527f596f7520616c72656164792077697468647265772066726f6d2074686520726f6040820152621d5b9960ea1b606082015260800190565b6020808252601a908201527f426174636820656e74727920646f6573206e6f74206578697374000000000000604082015260600190565b602080825260159082015274115b9d1c9e48185b1c9958591e481cd95d1d1b1959605a1b604082015260600190565b634e487b7160e01b600052601260045260246000fd5b60008261337557613375613350565b500690565b634e487b7160e01b600052601160045260246000fd5b60008160001904831182151516156133aa576133aa61337a565b500290565b600082198211156133c2576133c261337a565b500190565b60006000198214156133db576133db61337a565b5060010190565b6020808252825182820181905260009190848201906040850190845b81811015612e7f578351835292840192918401916001016133fe565b60208082526017908201527f43616c6c6572206973206e6f7420746865206f776e6572000000000000000000604082015260600190565b602080825260159082015274496e76616c696420636f6e7472616374206d6f646560581b604082015260600190565b60008261348f5761348f613350565b50049056fe8737f869d841892b3129422522ac69ac1189cf401d8cb0dc9948efa837731181a2646970667358221220dd7b07fb40b4fe45c874da10a1245d581a46e19bfc8b0b31dc28118379a2b69864736f6c63430008090033",
  "devdoc": {
    "kind": "dev",
    "methods": {
      "paused()": {
        "details": "Returns true if the contract is paused, and false otherwise."
      }
    },
    "version": 1
  },
  "userdoc": {
    "kind": "user",
    "methods": {},
    "version": 1
  },
  "storageLayout": {
    "storage": [
      {
        "astId": 3983,
        "contract": "contracts/FareSpin.sol:FareSpin",
        "label": "_status",
        "offset": 0,
        "slot": "0",
        "type": "t_uint256"
      },
      {
        "astId": 3882,
        "contract": "contracts/FareSpin.sol:FareSpin",
        "label": "_paused",
        "offset": 0,
        "slot": "1",
        "type": "t_bool"
      },
      {
        "astId": 13896,
        "contract": "contracts/FareSpin.sol:FareSpin",
        "label": "_owner",
        "offset": 1,
        "slot": "1",
        "type": "t_address"
      },
      {
        "astId": 13899,
        "contract": "contracts/FareSpin.sol:FareSpin",
        "label": "fareToken",
        "offset": 0,
        "slot": "2",
        "type": "t_contract(IFareToken)18736"
      },
      {
        "astId": 13902,
        "contract": "contracts/FareSpin.sol:FareSpin",
        "label": "_currentRoundId",
        "offset": 0,
        "slot": "3",
        "type": "t_struct(Counter)8521_storage"
      },
      {
        "astId": 13905,
        "contract": "contracts/FareSpin.sol:FareSpin",
        "label": "_currentContractModeId",
        "offset": 0,
        "slot": "4",
        "type": "t_struct(Counter)8521_storage"
      },
      {
        "astId": 13920,
        "contract": "contracts/FareSpin.sol:FareSpin",
        "label": "rewardsMint",
        "offset": 0,
        "slot": "5",
        "type": "t_uint256"
      },
      {
        "astId": 13922,
        "contract": "contracts/FareSpin.sol:FareSpin",
        "label": "rewardsAddress",
        "offset": 0,
        "slot": "6",
        "type": "t_address"
      },
      {
        "astId": 13925,
        "contract": "contracts/FareSpin.sol:FareSpin",
        "label": "isRoundPaused",
        "offset": 20,
        "slot": "6",
        "type": "t_bool"
      },
      {
        "astId": 13928,
        "contract": "contracts/FareSpin.sol:FareSpin",
        "label": "withdrawalPeriod",
        "offset": 0,
        "slot": "7",
        "type": "t_uint256"
      },
      {
        "astId": 14029,
        "contract": "contracts/FareSpin.sol:FareSpin",
        "label": "contractModes",
        "offset": 0,
        "slot": "8",
        "type": "t_mapping(t_uint256,t_struct(ContractMode)13973_storage)"
      },
      {
        "astId": 14034,
        "contract": "contracts/FareSpin.sol:FareSpin",
        "label": "rounds",
        "offset": 0,
        "slot": "9",
        "type": "t_mapping(t_uint256,t_struct(Round)14004_storage)"
      },
      {
        "astId": 14041,
        "contract": "contracts/FareSpin.sol:FareSpin",
        "label": "batchEntryMap",
        "offset": 0,
        "slot": "10",
        "type": "t_mapping(t_uint256,t_mapping(t_address,t_struct(BatchEntry)13956_storage))"
      },
      {
        "astId": 14045,
        "contract": "contracts/FareSpin.sol:FareSpin",
        "label": "randomHashMap",
        "offset": 0,
        "slot": "11",
        "type": "t_mapping(t_uint256,t_bytes32)"
      }
    ],
    "types": {
      "t_address": {
        "encoding": "inplace",
        "label": "address",
        "numberOfBytes": "20"
      },
      "t_array(t_address)dyn_storage": {
        "base": "t_address",
        "encoding": "dynamic_array",
        "label": "address[]",
        "numberOfBytes": "32"
      },
      "t_array(t_struct(Eliminator)13980_storage)dyn_storage": {
        "base": "t_struct(Eliminator)13980_storage",
        "encoding": "dynamic_array",
        "label": "struct FareSpin.Eliminator[]",
        "numberOfBytes": "32"
      },
      "t_array(t_struct(Entry)13935_storage)dyn_storage": {
        "base": "t_struct(Entry)13935_storage",
        "encoding": "dynamic_array",
        "label": "struct FareSpin.Entry[]",
        "numberOfBytes": "32"
      },
      "t_bool": {
        "encoding": "inplace",
        "label": "bool",
        "numberOfBytes": "1"
      },
      "t_bytes32": {
        "encoding": "inplace",
        "label": "bytes32",
        "numberOfBytes": "32"
      },
      "t_contract(IFareToken)18736": {
        "encoding": "inplace",
        "label": "contract IFareToken",
        "numberOfBytes": "20"
      },
      "t_mapping(t_address,t_struct(BatchEntry)13956_storage)": {
        "encoding": "mapping",
        "key": "t_address",
        "label": "mapping(address => struct FareSpin.BatchEntry)",
        "numberOfBytes": "32",
        "value": "t_struct(BatchEntry)13956_storage"
      },
      "t_mapping(t_uint256,t_bytes32)": {
        "encoding": "mapping",
        "key": "t_uint256",
        "label": "mapping(uint256 => bytes32)",
        "numberOfBytes": "32",
        "value": "t_bytes32"
      },
      "t_mapping(t_uint256,t_mapping(t_address,t_struct(BatchEntry)13956_storage))": {
        "encoding": "mapping",
        "key": "t_uint256",
        "label": "mapping(uint256 => mapping(address => struct FareSpin.BatchEntry))",
        "numberOfBytes": "32",
        "value": "t_mapping(t_address,t_struct(BatchEntry)13956_storage)"
      },
      "t_mapping(t_uint256,t_struct(ContractMode)13973_storage)": {
        "encoding": "mapping",
        "key": "t_uint256",
        "label": "mapping(uint256 => struct FareSpin.ContractMode)",
        "numberOfBytes": "32",
        "value": "t_struct(ContractMode)13973_storage"
      },
      "t_mapping(t_uint256,t_struct(Round)14004_storage)": {
        "encoding": "mapping",
        "key": "t_uint256",
        "label": "mapping(uint256 => struct FareSpin.Round)",
        "numberOfBytes": "32",
        "value": "t_struct(Round)14004_storage"
      },
      "t_struct(BatchEntry)13956_storage": {
        "encoding": "inplace",
        "label": "struct FareSpin.BatchEntry",
        "members": [
          {
            "astId": 13937,
            "contract": "contracts/FareSpin.sol:FareSpin",
            "label": "batchEntryId",
            "offset": 0,
            "slot": "0",
            "type": "t_uint256"
          },
          {
            "astId": 13939,
            "contract": "contracts/FareSpin.sol:FareSpin",
            "label": "user",
            "offset": 0,
            "slot": "1",
            "type": "t_address"
          },
          {
            "astId": 13941,
            "contract": "contracts/FareSpin.sol:FareSpin",
            "label": "settled",
            "offset": 20,
            "slot": "1",
            "type": "t_bool"
          },
          {
            "astId": 13943,
            "contract": "contracts/FareSpin.sol:FareSpin",
            "label": "settledAt",
            "offset": 0,
            "slot": "2",
            "type": "t_uint256"
          },
          {
            "astId": 13945,
            "contract": "contracts/FareSpin.sol:FareSpin",
            "label": "totalEntryAmount",
            "offset": 0,
            "slot": "3",
            "type": "t_uint256"
          },
          {
            "astId": 13947,
            "contract": "contracts/FareSpin.sol:FareSpin",
            "label": "totalMintAmount",
            "offset": 0,
            "slot": "4",
            "type": "t_uint256"
          },
          {
            "astId": 13949,
            "contract": "contracts/FareSpin.sol:FareSpin",
            "label": "placedAt",
            "offset": 0,
            "slot": "5",
            "type": "t_uint256"
          },
          {
            "astId": 13951,
            "contract": "contracts/FareSpin.sol:FareSpin",
            "label": "withdrewAt",
            "offset": 0,
            "slot": "6",
            "type": "t_uint256"
          },
          {
            "astId": 13955,
            "contract": "contracts/FareSpin.sol:FareSpin",
            "label": "entries",
            "offset": 0,
            "slot": "7",
            "type": "t_array(t_struct(Entry)13935_storage)dyn_storage"
          }
        ],
        "numberOfBytes": "256"
      },
      "t_struct(ContractMode)13973_storage": {
        "encoding": "inplace",
        "label": "struct FareSpin.ContractMode",
        "members": [
          {
            "astId": 13958,
            "contract": "contracts/FareSpin.sol:FareSpin",
            "label": "id",
            "offset": 0,
            "slot": "0",
            "type": "t_uint256"
          },
          {
            "astId": 13960,
            "contract": "contracts/FareSpin.sol:FareSpin",
            "label": "cardinality",
            "offset": 0,
            "slot": "1",
            "type": "t_uint256"
          },
          {
            "astId": 13962,
            "contract": "contracts/FareSpin.sol:FareSpin",
            "label": "contractExpectedValueFloor",
            "offset": 0,
            "slot": "2",
            "type": "t_uint256"
          },
          {
            "astId": 13964,
            "contract": "contracts/FareSpin.sol:FareSpin",
            "label": "mintMultiplier",
            "offset": 0,
            "slot": "3",
            "type": "t_uint256"
          },
          {
            "astId": 13966,
            "contract": "contracts/FareSpin.sol:FareSpin",
            "label": "minAmount",
            "offset": 0,
            "slot": "4",
            "type": "t_uint256"
          },
          {
            "astId": 13968,
            "contract": "contracts/FareSpin.sol:FareSpin",
            "label": "maxAmount",
            "offset": 0,
            "slot": "5",
            "type": "t_uint256"
          },
          {
            "astId": 13970,
            "contract": "contracts/FareSpin.sol:FareSpin",
            "label": "entryLimit",
            "offset": 0,
            "slot": "6",
            "type": "t_uint256"
          },
          {
            "astId": 13972,
            "contract": "contracts/FareSpin.sol:FareSpin",
            "label": "isActive",
            "offset": 0,
            "slot": "7",
            "type": "t_bool"
          }
        ],
        "numberOfBytes": "256"
      },
      "t_struct(Counter)8521_storage": {
        "encoding": "inplace",
        "label": "struct Counters.Counter",
        "members": [
          {
            "astId": 8520,
            "contract": "contracts/FareSpin.sol:FareSpin",
            "label": "_value",
            "offset": 0,
            "slot": "0",
            "type": "t_uint256"
          }
        ],
        "numberOfBytes": "32"
      },
      "t_struct(Eliminator)13980_storage": {
        "encoding": "inplace",
        "label": "struct FareSpin.Eliminator",
        "members": [
          {
            "astId": 13975,
            "contract": "contracts/FareSpin.sol:FareSpin",
            "label": "contractModeId",
            "offset": 0,
            "slot": "0",
            "type": "t_uint256"
          },
          {
            "astId": 13977,
            "contract": "contracts/FareSpin.sol:FareSpin",
            "label": "recordedExpectedValueFloor",
            "offset": 0,
            "slot": "1",
            "type": "t_uint256"
          },
          {
            "astId": 13979,
            "contract": "contracts/FareSpin.sol:FareSpin",
            "label": "isEliminator",
            "offset": 0,
            "slot": "2",
            "type": "t_bool"
          }
        ],
        "numberOfBytes": "96"
      },
      "t_struct(Entry)13935_storage": {
        "encoding": "inplace",
        "label": "struct FareSpin.Entry",
        "members": [
          {
            "astId": 13930,
            "contract": "contracts/FareSpin.sol:FareSpin",
            "label": "amount",
            "offset": 0,
            "slot": "0",
            "type": "t_uint256"
          },
          {
            "astId": 13932,
            "contract": "contracts/FareSpin.sol:FareSpin",
            "label": "contractModeId",
            "offset": 0,
            "slot": "1",
            "type": "t_uint256"
          },
          {
            "astId": 13934,
            "contract": "contracts/FareSpin.sol:FareSpin",
            "label": "pickedNumber",
            "offset": 0,
            "slot": "2",
            "type": "t_uint256"
          }
        ],
        "numberOfBytes": "96"
      },
      "t_struct(Round)14004_storage": {
        "encoding": "inplace",
        "label": "struct FareSpin.Round",
        "members": [
          {
            "astId": 13982,
            "contract": "contracts/FareSpin.sol:FareSpin",
            "label": "id",
            "offset": 0,
            "slot": "0",
            "type": "t_uint256"
          },
          {
            "astId": 13984,
            "contract": "contracts/FareSpin.sol:FareSpin",
            "label": "startedAt",
            "offset": 0,
            "slot": "1",
            "type": "t_uint256"
          },
          {
            "astId": 13986,
            "contract": "contracts/FareSpin.sol:FareSpin",
            "label": "endedAt",
            "offset": 0,
            "slot": "2",
            "type": "t_uint256"
          },
          {
            "astId": 13988,
            "contract": "contracts/FareSpin.sol:FareSpin",
            "label": "randomHash",
            "offset": 0,
            "slot": "3",
            "type": "t_bytes32"
          },
          {
            "astId": 13990,
            "contract": "contracts/FareSpin.sol:FareSpin",
            "label": "revealKey",
            "offset": 0,
            "slot": "4",
            "type": "t_bytes32"
          },
          {
            "astId": 13992,
            "contract": "contracts/FareSpin.sol:FareSpin",
            "label": "fullRandomNum",
            "offset": 0,
            "slot": "5",
            "type": "t_uint256"
          },
          {
            "astId": 13994,
            "contract": "contracts/FareSpin.sol:FareSpin",
            "label": "randomNum",
            "offset": 0,
            "slot": "6",
            "type": "t_uint256"
          },
          {
            "astId": 13996,
            "contract": "contracts/FareSpin.sol:FareSpin",
            "label": "randomEliminator",
            "offset": 0,
            "slot": "7",
            "type": "t_uint256"
          },
          {
            "astId": 13999,
            "contract": "contracts/FareSpin.sol:FareSpin",
            "label": "users",
            "offset": 0,
            "slot": "8",
            "type": "t_array(t_address)dyn_storage"
          },
          {
            "astId": 14003,
            "contract": "contracts/FareSpin.sol:FareSpin",
            "label": "eliminators",
            "offset": 0,
            "slot": "9",
            "type": "t_array(t_struct(Eliminator)13980_storage)dyn_storage"
          }
        ],
        "numberOfBytes": "320"
      },
      "t_uint256": {
        "encoding": "inplace",
        "label": "uint256",
        "numberOfBytes": "32"
      }
    }
  }
}