{
  "address": "0x95a4579C77FCe475D22D8010AaECF688Db435f83",
  "abi": [
    {
      "inputs": [
        {
          "internalType": "address",
          "name": "linkAddress",
          "type": "address"
        }
      ],
      "stateMutability": "nonpayable",
      "type": "constructor"
    },
    {
      "anonymous": false,
      "inputs": [
        {
          "indexed": true,
          "internalType": "address",
          "name": "sender",
          "type": "address"
        },
        {
          "indexed": true,
          "internalType": "bytes32",
          "name": "keyHash",
          "type": "bytes32"
        },
        {
          "indexed": true,
          "internalType": "uint256",
          "name": "seed",
          "type": "uint256"
        }
      ],
      "name": "RandomnessRequest",
      "type": "event"
    },
    {
      "inputs": [],
      "name": "LINK",
      "outputs": [
        {
          "internalType": "contract LinkTokenInterface",
          "name": "",
          "type": "address"
        }
      ],
      "stateMutability": "view",
      "type": "function"
    },
    {
      "inputs": [
        {
          "internalType": "bytes32",
          "name": "requestId",
          "type": "bytes32"
        },
        {
          "internalType": "uint256",
          "name": "randomness",
          "type": "uint256"
        },
        {
          "internalType": "address",
          "name": "consumerContract",
          "type": "address"
        }
      ],
      "name": "callBackWithRandomness",
      "outputs": [],
      "stateMutability": "nonpayable",
      "type": "function"
    },
    {
      "inputs": [
        {
          "internalType": "address",
          "name": "sender",
          "type": "address"
        },
        {
          "internalType": "uint256",
          "name": "fee",
          "type": "uint256"
        },
        {
          "internalType": "bytes",
          "name": "_data",
          "type": "bytes"
        }
      ],
      "name": "onTokenTransfer",
      "outputs": [],
      "stateMutability": "nonpayable",
      "type": "function"
    }
  ],
  "transactionHash": "0x1d68e447fcb4261d9a3588fb522b76e7b073416acb563ba82852e0c3717524de",
  "args": [
    "0x46A7E14c0107373038509A93C5126E631aAaa04b"
  ],
  "numDeployments": 1,
  "solcInputHash": "c63ef65c01606f6b1a22ee6232f6bfbc",
  "bytecode": "0x608060405234801561001057600080fd5b506040516104a43803806104a483398101604081905261002f91610054565b600080546001600160a01b0319166001600160a01b0392909216919091179055610084565b60006020828403121561006657600080fd5b81516001600160a01b038116811461007d57600080fd5b9392505050565b610411806100936000396000f3fe608060405234801561001057600080fd5b50600436106100415760003560e01c80631b6b6d2314610046578063a4c0ed3614610075578063cf55fe971461008a575b600080fd5b600054610059906001600160a01b031681565b6040516001600160a01b03909116815260200160405180910390f35b61008861008336600461027c565b61009d565b005b610088610098366004610347565b61014c565b6000546001600160a01b031633146100f25760405162461bcd60e51b815260206004820152601360248201527226bab9ba103ab9b2902624a725903a37b5b2b760691b60448201526064015b60405180910390fd5b60008082806020019051810190610109919061037c565b915091508082866001600160a01b03167f7a9a0a6960d95b32cded93c30e63e7c2eb9e877230813c172110ea54dc1c915c60405160405180910390a45050505050565b604080516024810185905260448082018590528251808303909101815260649091019091526020810180516001600160e01b03166394985ddd60e01b179052600090620324b0805a10156101e25760405162461bcd60e51b815260206004820152601b60248201527f6e6f7420656e6f7567682067617320666f7220636f6e73756d6572000000000060448201526064016100e9565b6000846001600160a01b0316836040516101fc91906103a0565b6000604051808303816000865af19150503d8060008114610239576040519150601f19603f3d011682016040523d82523d6000602084013e61023e565b606091505b50505050505050505050565b80356001600160a01b038116811461026157600080fd5b919050565b634e487b7160e01b600052604160045260246000fd5b60008060006060848603121561029157600080fd5b61029a8461024a565b925060208401359150604084013567ffffffffffffffff808211156102be57600080fd5b818601915086601f8301126102d257600080fd5b8135818111156102e4576102e4610266565b604051601f8201601f19908116603f0116810190838211818310171561030c5761030c610266565b8160405282815289602084870101111561032557600080fd5b8260208601602083013760006020848301015280955050505050509250925092565b60008060006060848603121561035c57600080fd5b83359250602084013591506103736040850161024a565b90509250925092565b6000806040838503121561038f57600080fd5b505080516020909101519092909150565b6000825160005b818110156103c157602081860181015185830152016103a7565b818111156103d0576000828501525b50919091019291505056fea26469706673582212202f9b190e2bb013dac8ef21b3b3f141f6a80937646f5da2c34bb8a7ae6b2daecf64736f6c63430008090033",
  "devdoc": {
    "kind": "dev",
    "methods": {},
    "version": 1
  },
  "userdoc": {
    "kind": "user",
    "methods": {},
    "version": 1
  },
  "storageLayout": {
    "storage": [
      {
        "astId": 798,
        "contract": "@chainlink/contracts/src/v0.8/mocks/VRFCoordinatorMock.sol:VRFCoordinatorMock",
        "label": "LINK",
        "offset": 0,
        "slot": "0",
        "type": "t_contract(LinkTokenInterface)695"
      }
    ],
    "types": {
      "t_contract(LinkTokenInterface)695": {
        "encoding": "inplace",
        "label": "contract LinkTokenInterface",
        "numberOfBytes": "20"
      }
    }
  }
}